{
	"auction.sol": {
		"subasta": {
			"abi": [
				{
					"inputs": [],
					"stateMutability": "nonpayable",
					"type": "constructor"
				},
				{
					"anonymous": false,
					"inputs": [
						{
							"indexed": true,
							"internalType": "address",
							"name": "bidder",
							"type": "address"
						},
						{
							"indexed": false,
							"internalType": "uint256",
							"name": "amount",
							"type": "uint256"
						}
					],
					"name": "BidEnding",
					"type": "event"
				},
				{
					"anonymous": false,
					"inputs": [
						{
							"indexed": true,
							"internalType": "address",
							"name": "bidder",
							"type": "address"
						},
						{
							"indexed": false,
							"internalType": "uint256",
							"name": "amount",
							"type": "uint256"
						},
						{
							"indexed": false,
							"internalType": "uint256",
							"name": "timestamp",
							"type": "uint256"
						}
					],
					"name": "Newoffer",
					"type": "event"
				},
				{
					"inputs": [],
					"name": "bidDuracion",
					"outputs": [
						{
							"internalType": "uint256",
							"name": "",
							"type": "uint256"
						}
					],
					"stateMutability": "view",
					"type": "function"
				},
				{
					"inputs": [],
					"name": "endSubasta",
					"outputs": [],
					"stateMutability": "nonpayable",
					"type": "function"
				},
				{
					"inputs": [],
					"name": "extenbidTime",
					"outputs": [
						{
							"internalType": "uint256",
							"name": "",
							"type": "uint256"
						}
					],
					"stateMutability": "view",
					"type": "function"
				},
				{
					"inputs": [],
					"name": "getOffers",
					"outputs": [
						{
							"components": [
								{
									"internalType": "address",
									"name": "bidder",
									"type": "address"
								},
								{
									"internalType": "uint256",
									"name": "amount",
									"type": "uint256"
								},
								{
									"internalType": "uint256",
									"name": "offerDate",
									"type": "uint256"
								}
							],
							"internalType": "struct subasta.offer[]",
							"name": "",
							"type": "tuple[]"
						}
					],
					"stateMutability": "view",
					"type": "function"
				},
				{
					"inputs": [],
					"name": "getWin",
					"outputs": [
						{
							"internalType": "address",
							"name": "",
							"type": "address"
						},
						{
							"internalType": "uint256",
							"name": "",
							"type": "uint256"
						}
					],
					"stateMutability": "view",
					"type": "function"
				},
				{
					"inputs": [],
					"name": "intialValue",
					"outputs": [
						{
							"internalType": "uint256",
							"name": "",
							"type": "uint256"
						}
					],
					"stateMutability": "view",
					"type": "function"
				},
				{
					"inputs": [],
					"name": "maxOfferta",
					"outputs": [
						{
							"internalType": "uint256",
							"name": "",
							"type": "uint256"
						}
					],
					"stateMutability": "view",
					"type": "function"
				},
				{
					"inputs": [],
					"name": "returnOffers",
					"outputs": [],
					"stateMutability": "nonpayable",
					"type": "function"
				},
				{
					"inputs": [],
					"name": "returnParcial",
					"outputs": [],
					"stateMutability": "nonpayable",
					"type": "function"
				},
				{
					"inputs": [],
					"name": "saltoBid",
					"outputs": [
						{
							"internalType": "uint256",
							"name": "",
							"type": "uint256"
						}
					],
					"stateMutability": "view",
					"type": "function"
				},
				{
					"inputs": [],
					"name": "setOffer",
					"outputs": [],
					"stateMutability": "payable",
					"type": "function"
				}
			],
			"devdoc": {
				"kind": "dev",
				"methods": {},
				"version": 1
			},
			"evm": {
				"assembly": "    /* \"auction.sol\":64:5461  contract subasta {... */\n  mstore(0x40, 0x80)\n    /* \"auction.sol\":874:1087  constructor(){... */\n  callvalue\n  dup1\n  iszero\n  tag_1\n  jumpi\n  revert(0x00, 0x00)\ntag_1:\n  pop\n    /* \"auction.sol\":902:912  msg.sender */\n  caller\n    /* \"auction.sol\":894:899  owner */\n  0x07\n  0x00\n    /* \"auction.sol\":894:912  owner = msg.sender */\n  0x0100\n  exp\n  dup2\n  sload\n  dup2\n  0xffffffffffffffffffffffffffffffffffffffff\n  mul\n  not\n  and\n  swap1\n  dup4\n  0xffffffffffffffffffffffffffffffffffffffff\n  and\n  mul\n  or\n  swap1\n  sstore\n  pop\n    /* \"auction.sol\":933:939  1 gwei */\n  0x3b9aca00\n    /* \"auction.sol\":919:930  intialValue */\n  0x01\n    /* \"auction.sol\":919:939  intialValue = 1 gwei */\n  dup2\n  swap1\n  sstore\n  pop\n    /* \"auction.sol\":994:1000  7 days */\n  0x093a80\n    /* \"auction.sol\":976:991  block.timestamp */\n  timestamp\n    /* \"auction.sol\":976:1000  block.timestamp + 7 days */\n  tag_4\n  swap2\n  swap1\n  tag_5\n  jump\t// in\ntag_4:\n    /* \"auction.sol\":962:973  bidDuracion */\n  0x03\n    /* \"auction.sol\":962:1000  bidDuracion = block.timestamp + 7 days */\n  dup2\n  swap1\n  sstore\n  pop\n    /* \"auction.sol\":1021:1022  5 */\n  0x05\n    /* \"auction.sol\":1010:1018  saltoBid */\n  0x02\n    /* \"auction.sol\":1010:1022  saltoBid = 5 */\n  dup2\n  swap1\n  sstore\n  pop\n    /* \"auction.sol\":1044:1046  10 */\n  0x0a\n    /* \"auction.sol\":1029:1041  extenbidTime */\n  0x04\n    /* \"auction.sol\":1029:1046  extenbidTime = 10 */\n  dup2\n  swap1\n  sstore\n  pop\n    /* \"auction.sol\":64:5461  contract subasta {... */\n  jump(tag_6)\n    /* \"#utility.yul\":7:84   */\ntag_7:\n    /* \"#utility.yul\":44:51   */\n  0x00\n    /* \"#utility.yul\":73:78   */\n  dup2\n    /* \"#utility.yul\":62:78   */\n  swap1\n  pop\n    /* \"#utility.yul\":7:84   */\n  swap2\n  swap1\n  pop\n  jump\t// out\n    /* \"#utility.yul\":90:270   */\ntag_8:\n    /* \"#utility.yul\":138:215   */\n  0x4e487b7100000000000000000000000000000000000000000000000000000000\n    /* \"#utility.yul\":135:136   */\n  0x00\n    /* \"#utility.yul\":128:216   */\n  mstore\n    /* \"#utility.yul\":235:239   */\n  0x11\n    /* \"#utility.yul\":232:233   */\n  0x04\n    /* \"#utility.yul\":225:240   */\n  mstore\n    /* \"#utility.yul\":259:263   */\n  0x24\n    /* \"#utility.yul\":256:257   */\n  0x00\n    /* \"#utility.yul\":249:264   */\n  revert\n    /* \"#utility.yul\":276:467   */\ntag_5:\n    /* \"#utility.yul\":316:319   */\n  0x00\n    /* \"#utility.yul\":335:355   */\n  tag_13\n    /* \"#utility.yul\":353:354   */\n  dup3\n    /* \"#utility.yul\":335:355   */\n  tag_7\n  jump\t// in\ntag_13:\n    /* \"#utility.yul\":330:355   */\n  swap2\n  pop\n    /* \"#utility.yul\":369:389   */\n  tag_14\n    /* \"#utility.yul\":387:388   */\n  dup4\n    /* \"#utility.yul\":369:389   */\n  tag_7\n  jump\t// in\ntag_14:\n    /* \"#utility.yul\":364:389   */\n  swap3\n  pop\n    /* \"#utility.yul\":412:413   */\n  dup3\n    /* \"#utility.yul\":409:410   */\n  dup3\n    /* \"#utility.yul\":405:414   */\n  add\n    /* \"#utility.yul\":398:414   */\n  swap1\n  pop\n    /* \"#utility.yul\":433:436   */\n  dup1\n    /* \"#utility.yul\":430:431   */\n  dup3\n    /* \"#utility.yul\":427:437   */\n  gt\n    /* \"#utility.yul\":424:460   */\n  iszero\n  tag_15\n  jumpi\n    /* \"#utility.yul\":440:458   */\n  tag_16\n  tag_8\n  jump\t// in\ntag_16:\n    /* \"#utility.yul\":424:460   */\ntag_15:\n    /* \"#utility.yul\":276:467   */\n  swap3\n  swap2\n  pop\n  pop\n  jump\t// out\n    /* \"auction.sol\":64:5461  contract subasta {... */\ntag_6:\n  dataSize(sub_0)\n  dup1\n  dataOffset(sub_0)\n  0x00\n  codecopy\n  0x00\n  return\nstop\n\nsub_0: assembly {\n        /* \"auction.sol\":64:5461  contract subasta {... */\n      mstore(0x40, 0x80)\n      jumpi(tag_1, lt(calldatasize, 0x04))\n      shr(0xe0, calldataload(0x00))\n      dup1\n      0x5b8a4cd1\n      gt\n      tag_13\n      jumpi\n      dup1\n      0x5b8a4cd1\n      eq\n      tag_7\n      jumpi\n      dup1\n      0x680aa85b\n      eq\n      tag_8\n      jumpi\n      dup1\n      0x689567d5\n      eq\n      tag_9\n      jumpi\n      dup1\n      0x77c468c4\n      eq\n      tag_10\n      jumpi\n      dup1\n      0xd6d36b92\n      eq\n      tag_11\n      jumpi\n      dup1\n      0xefb0a849\n      eq\n      tag_12\n      jumpi\n      jump(tag_1)\n    tag_13:\n      dup1\n      0x02891347\n      eq\n      tag_2\n      jumpi\n      dup1\n      0x2987479b\n      eq\n      tag_3\n      jumpi\n      dup1\n      0x3a2da003\n      eq\n      tag_4\n      jumpi\n      dup1\n      0x3ee992ee\n      eq\n      tag_5\n      jumpi\n      dup1\n      0x5021c7c3\n      eq\n      tag_6\n      jumpi\n    tag_1:\n      revert(0x00, 0x00)\n        /* \"auction.sol\":216:242  uint256 public intialValue */\n    tag_2:\n      callvalue\n      dup1\n      iszero\n      tag_14\n      jumpi\n      revert(0x00, 0x00)\n    tag_14:\n      pop\n      tag_15\n      tag_16\n      jump\t// in\n    tag_15:\n      mload(0x40)\n      tag_17\n      swap2\n      swap1\n      tag_18\n      jump\t// in\n    tag_17:\n      mload(0x40)\n      dup1\n      swap2\n      sub\n      swap1\n      return\n        /* \"auction.sol\":3383:3530  function endSubasta() external verifyOwner {... */\n    tag_3:\n      callvalue\n      dup1\n      iszero\n      tag_19\n      jumpi\n      revert(0x00, 0x00)\n    tag_19:\n      pop\n      tag_20\n      tag_21\n      jump\t// in\n    tag_20:\n      stop\n        /* \"auction.sol\":556:581  uint256 public maxOfferta */\n    tag_4:\n      callvalue\n      dup1\n      iszero\n      tag_22\n      jumpi\n      revert(0x00, 0x00)\n    tag_22:\n      pop\n      tag_23\n      tag_24\n      jump\t// in\n    tag_23:\n      mload(0x40)\n      tag_25\n      swap2\n      swap1\n      tag_18\n      jump\t// in\n    tag_25:\n      mload(0x40)\n      dup1\n      swap2\n      sub\n      swap1\n      return\n        /* \"auction.sol\":3803:3889  function getOffers() external  view returns (offer[] memory) {... */\n    tag_5:\n      callvalue\n      dup1\n      iszero\n      tag_26\n      jumpi\n      revert(0x00, 0x00)\n    tag_26:\n      pop\n      tag_27\n      tag_28\n      jump\t// in\n    tag_27:\n      mload(0x40)\n      tag_29\n      swap2\n      swap1\n      tag_30\n      jump\t// in\n    tag_29:\n      mload(0x40)\n      dup1\n      swap2\n      sub\n      swap1\n      return\n        /* \"auction.sol\":4567:5200  function returnParcial() external verifyBid {... */\n    tag_6:\n      callvalue\n      dup1\n      iszero\n      tag_31\n      jumpi\n      revert(0x00, 0x00)\n    tag_31:\n      pop\n      tag_32\n      tag_33\n      jump\t// in\n    tag_32:\n      stop\n        /* \"auction.sol\":376:402  uint256 public bidDuracion */\n    tag_7:\n      callvalue\n      dup1\n      iszero\n      tag_34\n      jumpi\n      revert(0x00, 0x00)\n    tag_34:\n      pop\n      tag_35\n      tag_36\n      jump\t// in\n    tag_35:\n      mload(0x40)\n      tag_37\n      swap2\n      swap1\n      tag_18\n      jump\t// in\n    tag_37:\n      mload(0x40)\n      dup1\n      swap2\n      sub\n      swap1\n      return\n        /* \"auction.sol\":451:478  uint256 public extenbidTime */\n    tag_8:\n      callvalue\n      dup1\n      iszero\n      tag_38\n      jumpi\n      revert(0x00, 0x00)\n    tag_38:\n      pop\n      tag_39\n      tag_40\n      jump\t// in\n    tag_39:\n      mload(0x40)\n      tag_41\n      swap2\n      swap1\n      tag_18\n      jump\t// in\n    tag_41:\n      mload(0x40)\n      dup1\n      swap2\n      sub\n      swap1\n      return\n        /* \"auction.sol\":1886:3290  function setOffer() external verifyBid payable {... */\n    tag_9:\n      tag_42\n      tag_43\n      jump\t// in\n    tag_42:\n      stop\n        /* \"auction.sol\":3982:4504  function returnOffers() external verifyOwner activarBid {... */\n    tag_10:\n      callvalue\n      dup1\n      iszero\n      tag_44\n      jumpi\n      revert(0x00, 0x00)\n    tag_44:\n      pop\n      tag_45\n      tag_46\n      jump\t// in\n    tag_45:\n      stop\n        /* \"auction.sol\":3627:3730  function getWin() external view returns (address, uint256){... */\n    tag_11:\n      callvalue\n      dup1\n      iszero\n      tag_47\n      jumpi\n      revert(0x00, 0x00)\n    tag_47:\n      pop\n      tag_48\n      tag_49\n      jump\t// in\n    tag_48:\n      mload(0x40)\n      tag_50\n      swap3\n      swap2\n      swap1\n      tag_51\n      jump\t// in\n    tag_50:\n      mload(0x40)\n      dup1\n      swap2\n      sub\n      swap1\n      return\n        /* \"auction.sol\":282:305  uint256 public saltoBid */\n    tag_12:\n      callvalue\n      dup1\n      iszero\n      tag_52\n      jumpi\n      revert(0x00, 0x00)\n    tag_52:\n      pop\n      tag_53\n      tag_54\n      jump\t// in\n    tag_53:\n      mload(0x40)\n      tag_55\n      swap2\n      swap1\n      tag_18\n      jump\t// in\n    tag_55:\n      mload(0x40)\n      dup1\n      swap2\n      sub\n      swap1\n      return\n        /* \"auction.sol\":216:242  uint256 public intialValue */\n    tag_16:\n      sload(0x01)\n      dup2\n      jump\t// out\n        /* \"auction.sol\":3383:3530  function endSubasta() external verifyOwner {... */\n    tag_21:\n        /* \"auction.sol\":1586:1591  owner */\n      0x07\n      0x00\n      swap1\n      sload\n      swap1\n      0x0100\n      exp\n      swap1\n      div\n      0xffffffffffffffffffffffffffffffffffffffff\n      and\n        /* \"auction.sol\":1572:1591  msg.sender == owner */\n      0xffffffffffffffffffffffffffffffffffffffff\n      and\n        /* \"auction.sol\":1572:1582  msg.sender */\n      caller\n        /* \"auction.sol\":1572:1591  msg.sender == owner */\n      0xffffffffffffffffffffffffffffffffffffffff\n      and\n      eq\n        /* \"auction.sol\":1564:1614  require(msg.sender == owner, \"Only Owner enabled\") */\n      tag_57\n      jumpi\n      mload(0x40)\n      0x08c379a000000000000000000000000000000000000000000000000000000000\n      dup2\n      mstore\n      0x04\n      add\n      tag_58\n      swap1\n      tag_59\n      jump\t// in\n    tag_58:\n      mload(0x40)\n      dup1\n      swap2\n      sub\n      swap1\n      revert\n    tag_57:\n        /* \"auction.sol\":3446:3447  1 */\n      0x01\n        /* \"auction.sol\":3433:3443  flagEndBid */\n      0x00\n      0x00\n        /* \"auction.sol\":3433:3447  flagEndBid = 1 */\n      0x0100\n      exp\n      dup2\n      sload\n      dup2\n      0xff\n      mul\n      not\n      and\n      swap1\n      dup4\n      0xff\n      and\n      mul\n      or\n      swap1\n      sstore\n      pop\n        /* \"auction.sol\":3502:3511  winBidder */\n      0x06\n      0x00\n      swap1\n      sload\n      swap1\n      0x0100\n      exp\n      swap1\n      div\n      0xffffffffffffffffffffffffffffffffffffffff\n      and\n        /* \"auction.sol\":3492:3524  BidEnding(winBidder, maxOfferta) */\n      0xffffffffffffffffffffffffffffffffffffffff\n      and\n      0x4595e0e99913fee39d1c2fbbbc388d20ca46779d6170d1bb13efad202115e1ea\n        /* \"auction.sol\":3513:3523  maxOfferta */\n      sload(0x05)\n        /* \"auction.sol\":3492:3524  BidEnding(winBidder, maxOfferta) */\n      mload(0x40)\n      tag_61\n      swap2\n      swap1\n      tag_18\n      jump\t// in\n    tag_61:\n      mload(0x40)\n      dup1\n      swap2\n      sub\n      swap1\n      log2\n        /* \"auction.sol\":3383:3530  function endSubasta() external verifyOwner {... */\n      jump\t// out\n        /* \"auction.sol\":556:581  uint256 public maxOfferta */\n    tag_24:\n      sload(0x05)\n      dup2\n      jump\t// out\n        /* \"auction.sol\":3803:3889  function getOffers() external  view returns (offer[] memory) {... */\n    tag_28:\n        /* \"auction.sol\":3848:3862  offer[] memory */\n      0x60\n        /* \"auction.sol\":3878:3884  offers */\n      0x08\n        /* \"auction.sol\":3871:3884  return offers */\n      dup1\n      sload\n      dup1\n      0x20\n      mul\n      0x20\n      add\n      mload(0x40)\n      swap1\n      dup2\n      add\n      0x40\n      mstore\n      dup1\n      swap3\n      swap2\n      swap1\n      dup2\n      dup2\n      mstore\n      0x20\n      add\n      0x00\n      swap1\n    tag_63:\n      dup3\n      dup3\n      lt\n      iszero\n      tag_64\n      jumpi\n      dup4\n      dup3\n      swap1\n      0x00\n      mstore\n      keccak256(0x00, 0x20)\n      swap1\n      0x03\n      mul\n      add\n      mload(0x40)\n      dup1\n      0x60\n      add\n      0x40\n      mstore\n      swap1\n      dup2\n      0x00\n      dup3\n      add\n      0x00\n      swap1\n      sload\n      swap1\n      0x0100\n      exp\n      swap1\n      div\n      0xffffffffffffffffffffffffffffffffffffffff\n      and\n      0xffffffffffffffffffffffffffffffffffffffff\n      and\n      0xffffffffffffffffffffffffffffffffffffffff\n      and\n      dup2\n      mstore\n      0x20\n      add\n      0x01\n      dup3\n      add\n      sload\n      dup2\n      mstore\n      0x20\n      add\n      0x02\n      dup3\n      add\n      sload\n      dup2\n      mstore\n      pop\n      pop\n      dup2\n      mstore\n      0x20\n      add\n      swap1\n      0x01\n      add\n      swap1\n      jump(tag_63)\n    tag_64:\n      pop\n      pop\n      pop\n      pop\n      swap1\n      pop\n        /* \"auction.sol\":3803:3889  function getOffers() external  view returns (offer[] memory) {... */\n      swap1\n      jump\t// out\n        /* \"auction.sol\":4567:5200  function returnParcial() external verifyBid {... */\n    tag_33:\n        /* \"auction.sol\":1421:1422  0 */\n      0x00\n        /* \"auction.sol\":1408:1418  flagEndBid */\n      0x00\n      0x00\n      swap1\n      sload\n      swap1\n      0x0100\n      exp\n      swap1\n      div\n      0xff\n      and\n        /* \"auction.sol\":1408:1422  flagEndBid ==0 */\n      0xff\n      and\n      eq\n        /* \"auction.sol\":1400:1446  require(flagEndBid ==0, \"The auction is over\") */\n      tag_67\n      jumpi\n      mload(0x40)\n      0x08c379a000000000000000000000000000000000000000000000000000000000\n      dup2\n      mstore\n      0x04\n      add\n      tag_68\n      swap1\n      tag_69\n      jump\t// in\n    tag_68:\n      mload(0x40)\n      dup1\n      swap2\n      sub\n      swap1\n      revert\n    tag_67:\n        /* \"auction.sol\":1480:1491  bidDuracion */\n      sload(0x03)\n        /* \"auction.sol\":1461:1476  block.timestamp */\n      timestamp\n        /* \"auction.sol\":1461:1491  block.timestamp <= bidDuracion */\n      gt\n      iszero\n        /* \"auction.sol\":1453:1519  require(block.timestamp <= bidDuracion, \"The auction has expired\") */\n      tag_70\n      jumpi\n      mload(0x40)\n      0x08c379a000000000000000000000000000000000000000000000000000000000\n      dup2\n      mstore\n      0x04\n      add\n      tag_71\n      swap1\n      tag_72\n      jump\t// in\n    tag_71:\n      mload(0x40)\n      dup1\n      swap2\n      sub\n      swap1\n      revert\n    tag_70:\n        /* \"auction.sol\":4618:4630  uint256 _len */\n      0x00\n        /* \"auction.sol\":4633:4639  offers */\n      0x08\n        /* \"auction.sol\":4633:4646  offers.length */\n      dup1\n      sload\n      swap1\n      pop\n        /* \"auction.sol\":4618:4646  uint256 _len = offers.length */\n      swap1\n      pop\n        /* \"auction.sol\":4653:4662  uint256 i */\n      0x00\n        /* \"auction.sol\":4669:4690  uint256 _returnAmount */\n      0x00\n        /* \"auction.sol\":4698:4714  uint8 _flagExist */\n      0x00\n        /* \"auction.sol\":4722:4737  address _sender */\n      0x00\n        /* \"auction.sol\":4740:4750  msg.sender */\n      caller\n        /* \"auction.sol\":4722:4750  address _sender = msg.sender */\n      swap1\n      pop\n        /* \"auction.sol\":4766:4767  0 */\n      0x00\n        /* \"auction.sol\":4764:4767  i=0 */\n      swap4\n      pop\n        /* \"auction.sol\":4759:4897  for (i=0; i< _len ; i++){... */\n    tag_74:\n        /* \"auction.sol\":4772:4776  _len */\n      dup5\n        /* \"auction.sol\":4769:4770  i */\n      dup5\n        /* \"auction.sol\":4769:4776  i< _len */\n      lt\n        /* \"auction.sol\":4759:4897  for (i=0; i< _len ; i++){... */\n      iszero\n      tag_75\n      jumpi\n        /* \"auction.sol\":4818:4825  _sender */\n      dup1\n        /* \"auction.sol\":4798:4825  offers[i].bidder == _sender */\n      0xffffffffffffffffffffffffffffffffffffffff\n      and\n        /* \"auction.sol\":4798:4804  offers */\n      0x08\n        /* \"auction.sol\":4805:4806  i */\n      dup6\n        /* \"auction.sol\":4798:4807  offers[i] */\n      dup2\n      sload\n      dup2\n      lt\n      tag_77\n      jumpi\n      tag_78\n      tag_79\n      jump\t// in\n    tag_78:\n    tag_77:\n      swap1\n      0x00\n      mstore\n      keccak256(0x00, 0x20)\n      swap1\n      0x03\n      mul\n      add\n        /* \"auction.sol\":4798:4814  offers[i].bidder */\n      0x00\n      add\n      0x00\n      swap1\n      sload\n      swap1\n      0x0100\n      exp\n      swap1\n      div\n      0xffffffffffffffffffffffffffffffffffffffff\n      and\n        /* \"auction.sol\":4798:4825  offers[i].bidder == _sender */\n      0xffffffffffffffffffffffffffffffffffffffff\n      and\n      sub\n        /* \"auction.sol\":4794:4888  if (offers[i].bidder == _sender ){... */\n      tag_81\n      jumpi\n        /* \"auction.sol\":4855:4856  1 */\n      0x01\n        /* \"auction.sol\":4842:4856  _flagExist = 1 */\n      swap2\n      pop\n        /* \"auction.sol\":4871:4876  break */\n      jump(tag_75)\n        /* \"auction.sol\":4794:4888  if (offers[i].bidder == _sender ){... */\n    tag_81:\n        /* \"auction.sol\":4779:4782  i++ */\n      dup4\n      dup1\n      0x01\n      add\n      swap5\n      pop\n      pop\n        /* \"auction.sol\":4759:4897  for (i=0; i< _len ; i++){... */\n      jump(tag_74)\n    tag_75:\n        /* \"auction.sol\":4924:4925  1 */\n      0x01\n        /* \"auction.sol\":4911:4921  _flagExist */\n      dup3\n        /* \"auction.sol\":4911:4925  _flagExist ==1 */\n      0xff\n      and\n      eq\n        /* \"auction.sol\":4903:4953  require(_flagExist ==1, \"No es valido offertante\") */\n      tag_82\n      jumpi\n      mload(0x40)\n      0x08c379a000000000000000000000000000000000000000000000000000000000\n      dup2\n      mstore\n      0x04\n      add\n      tag_83\n      swap1\n      tag_84\n      jump\t// in\n    tag_83:\n      mload(0x40)\n      dup1\n      swap2\n      sub\n      swap1\n      revert\n    tag_82:\n        /* \"auction.sol\":4995:5001  offers */\n      0x08\n        /* \"auction.sol\":5002:5003  i */\n      dup5\n        /* \"auction.sol\":4995:5004  offers[i] */\n      dup2\n      sload\n      dup2\n      lt\n      tag_85\n      jumpi\n      tag_86\n      tag_79\n      jump\t// in\n    tag_86:\n    tag_85:\n      swap1\n      0x00\n      mstore\n      keccak256(0x00, 0x20)\n      swap1\n      0x03\n      mul\n      add\n        /* \"auction.sol\":4995:5011  offers[i].amount */\n      0x01\n      add\n      sload\n        /* \"auction.sol\":4976:4983  balance */\n      0x0a\n        /* \"auction.sol\":4976:4992  balance[_sender] */\n      0x00\n        /* \"auction.sol\":4984:4991  _sender */\n      dup4\n        /* \"auction.sol\":4976:4992  balance[_sender] */\n      0xffffffffffffffffffffffffffffffffffffffff\n      and\n      0xffffffffffffffffffffffffffffffffffffffff\n      and\n      dup2\n      mstore\n      0x20\n      add\n      swap1\n      dup2\n      mstore\n      0x20\n      add\n      0x00\n      keccak256\n      sload\n        /* \"auction.sol\":4976:5011  balance[_sender] - offers[i].amount */\n      tag_88\n      swap2\n      swap1\n      tag_89\n      jump\t// in\n    tag_88:\n        /* \"auction.sol\":4960:5011  _returnAmount = balance[_sender] - offers[i].amount */\n      swap3\n      pop\n        /* \"auction.sol\":5041:5042  0 */\n      0x00\n        /* \"auction.sol\":5026:5039  _returnAmount */\n      dup4\n        /* \"auction.sol\":5026:5042  _returnAmount >0 */\n      gt\n        /* \"auction.sol\":5018:5066  require(_returnAmount >0, \"No hay para retirar\") */\n      tag_90\n      jumpi\n      mload(0x40)\n      0x08c379a000000000000000000000000000000000000000000000000000000000\n      dup2\n      mstore\n      0x04\n      add\n      tag_91\n      swap1\n      tag_92\n      jump\t// in\n    tag_91:\n      mload(0x40)\n      dup1\n      swap2\n      sub\n      swap1\n      revert\n    tag_90:\n        /* \"auction.sol\":5135:5148  _returnAmount */\n      dup3\n        /* \"auction.sol\":5115:5122  balance */\n      0x0a\n        /* \"auction.sol\":5115:5132  balance[ _sender] */\n      0x00\n        /* \"auction.sol\":5124:5131  _sender */\n      dup4\n        /* \"auction.sol\":5115:5132  balance[ _sender] */\n      0xffffffffffffffffffffffffffffffffffffffff\n      and\n      0xffffffffffffffffffffffffffffffffffffffff\n      and\n      dup2\n      mstore\n      0x20\n      add\n      swap1\n      dup2\n      mstore\n      0x20\n      add\n      0x00\n      keccak256\n      sload\n        /* \"auction.sol\":5115:5148  balance[ _sender] - _returnAmount */\n      tag_93\n      swap2\n      swap1\n      tag_89\n      jump\t// in\n    tag_93:\n        /* \"auction.sol\":5096:5103  balance */\n      0x0a\n        /* \"auction.sol\":5096:5112  balance[_sender] */\n      0x00\n        /* \"auction.sol\":5104:5111  _sender */\n      dup4\n        /* \"auction.sol\":5096:5112  balance[_sender] */\n      0xffffffffffffffffffffffffffffffffffffffff\n      and\n      0xffffffffffffffffffffffffffffffffffffffff\n      and\n      dup2\n      mstore\n      0x20\n      add\n      swap1\n      dup2\n      mstore\n      0x20\n      add\n      0x00\n      keccak256\n        /* \"auction.sol\":5096:5148  balance[_sender] = balance[ _sender] - _returnAmount */\n      dup2\n      swap1\n      sstore\n      pop\n        /* \"auction.sol\":5164:5171  _sender */\n      dup1\n        /* \"auction.sol\":5155:5181  payable (_sender).transfer */\n      0xffffffffffffffffffffffffffffffffffffffff\n      and\n        /* \"auction.sol\":5155:5196  payable (_sender).transfer(_returnAmount) */\n      0x08fc\n        /* \"auction.sol\":5182:5195  _returnAmount */\n      dup5\n        /* \"auction.sol\":5155:5196  payable (_sender).transfer(_returnAmount) */\n      swap1\n      dup2\n      iszero\n      mul\n      swap1\n      mload(0x40)\n      0x00\n      mload(0x40)\n      dup1\n      dup4\n      sub\n      dup2\n      dup6\n      dup9\n      dup9\n      call\n      swap4\n      pop\n      pop\n      pop\n      pop\n      iszero\n      dup1\n      iszero\n      tag_95\n      jumpi\n      returndatacopy(0x00, 0x00, returndatasize)\n      revert(0x00, returndatasize)\n    tag_95:\n      pop\n        /* \"auction.sol\":4611:5200  {... */\n      pop\n      pop\n      pop\n      pop\n      pop\n        /* \"auction.sol\":4567:5200  function returnParcial() external verifyBid {... */\n      jump\t// out\n        /* \"auction.sol\":376:402  uint256 public bidDuracion */\n    tag_36:\n      sload(0x03)\n      dup2\n      jump\t// out\n        /* \"auction.sol\":451:478  uint256 public extenbidTime */\n    tag_40:\n      sload(0x04)\n      dup2\n      jump\t// out\n        /* \"auction.sol\":1886:3290  function setOffer() external verifyBid payable {... */\n    tag_43:\n        /* \"auction.sol\":1421:1422  0 */\n      0x00\n        /* \"auction.sol\":1408:1418  flagEndBid */\n      0x00\n      0x00\n      swap1\n      sload\n      swap1\n      0x0100\n      exp\n      swap1\n      div\n      0xff\n      and\n        /* \"auction.sol\":1408:1422  flagEndBid ==0 */\n      0xff\n      and\n      eq\n        /* \"auction.sol\":1400:1446  require(flagEndBid ==0, \"The auction is over\") */\n      tag_97\n      jumpi\n      mload(0x40)\n      0x08c379a000000000000000000000000000000000000000000000000000000000\n      dup2\n      mstore\n      0x04\n      add\n      tag_98\n      swap1\n      tag_69\n      jump\t// in\n    tag_98:\n      mload(0x40)\n      dup1\n      swap2\n      sub\n      swap1\n      revert\n    tag_97:\n        /* \"auction.sol\":1480:1491  bidDuracion */\n      sload(0x03)\n        /* \"auction.sol\":1461:1476  block.timestamp */\n      timestamp\n        /* \"auction.sol\":1461:1491  block.timestamp <= bidDuracion */\n      gt\n      iszero\n        /* \"auction.sol\":1453:1519  require(block.timestamp <= bidDuracion, \"The auction has expired\") */\n      tag_99\n      jumpi\n      mload(0x40)\n      0x08c379a000000000000000000000000000000000000000000000000000000000\n      dup2\n      mstore\n      0x04\n      add\n      tag_100\n      swap1\n      tag_72\n      jump\t// in\n    tag_100:\n      mload(0x40)\n      dup1\n      swap2\n      sub\n      swap1\n      revert\n    tag_99:\n        /* \"auction.sol\":1940:1960  uint256 _offerAmount */\n      0x00\n        /* \"auction.sol\":1963:1972  msg.value */\n      callvalue\n        /* \"auction.sol\":1940:1972  uint256 _offerAmount = msg.value */\n      swap1\n      pop\n        /* \"auction.sol\":1979:1998  uint256 _limitOffer */\n      0x00\n        /* \"auction.sol\":2037:2040  100 */\n      0x64\n        /* \"auction.sol\":2028:2036  saltoBid */\n      sload(0x02)\n        /* \"auction.sol\":2015:2025  maxOfferta */\n      sload(0x05)\n        /* \"auction.sol\":2015:2036  maxOfferta * saltoBid */\n      tag_102\n      swap2\n      swap1\n      tag_103\n      jump\t// in\n    tag_102:\n        /* \"auction.sol\":2015:2040  maxOfferta * saltoBid/100 */\n      tag_104\n      swap2\n      swap1\n      tag_105\n      jump\t// in\n    tag_104:\n        /* \"auction.sol\":2001:2011  maxOfferta */\n      sload(0x05)\n        /* \"auction.sol\":2001:2041  maxOfferta + (maxOfferta * saltoBid/100) */\n      tag_106\n      swap2\n      swap1\n      tag_107\n      jump\t// in\n    tag_106:\n        /* \"auction.sol\":1979:2041  uint256 _limitOffer = maxOfferta + (maxOfferta * saltoBid/100) */\n      swap1\n      pop\n        /* \"auction.sol\":2073:2084  _limitOffer */\n      dup1\n        /* \"auction.sol\":2058:2070  _offerAmount */\n      dup3\n        /* \"auction.sol\":2058:2084  _offerAmount > _limitOffer */\n      gt\n        /* \"auction.sol\":2054:3281  if( _offerAmount > _limitOffer ){... */\n      iszero\n      tag_108\n      jumpi\n        /* \"auction.sol\":2097:2116  address _addrBidder */\n      0x00\n        /* \"auction.sol\":2119:2129  msg.sender */\n      caller\n        /* \"auction.sol\":2097:2129  address _addrBidder = msg.sender */\n      swap1\n      pop\n        /* \"auction.sol\":2152:2163  _addrBidder */\n      dup1\n        /* \"auction.sol\":2140:2149  winBidder */\n      0x06\n      0x00\n        /* \"auction.sol\":2140:2163  winBidder = _addrBidder */\n      0x0100\n      exp\n      dup2\n      sload\n      dup2\n      0xffffffffffffffffffffffffffffffffffffffff\n      mul\n      not\n      and\n      swap1\n      dup4\n      0xffffffffffffffffffffffffffffffffffffffff\n      and\n      mul\n      or\n      swap1\n      sstore\n      pop\n        /* \"auction.sol\":2187:2199  _offerAmount */\n      dup3\n        /* \"auction.sol\":2174:2184  maxOfferta */\n      0x05\n        /* \"auction.sol\":2174:2199  maxOfferta = _offerAmount */\n      dup2\n      swap1\n      sstore\n      pop\n        /* \"auction.sol\":2212:2224  uint256 _len */\n      0x00\n        /* \"auction.sol\":2227:2233  offers */\n      0x08\n        /* \"auction.sol\":2227:2240  offers.length */\n      dup1\n      sload\n      swap1\n      pop\n        /* \"auction.sol\":2212:2240  uint256 _len = offers.length */\n      swap1\n      pop\n        /* \"auction.sol\":2251:2272  uint8 _flagExistOffer */\n      0x00\n        /* \"auction.sol\":2290:2299  uint256 i */\n      0x00\n        /* \"auction.sol\":2302:2303  0 */\n      0x00\n        /* \"auction.sol\":2290:2303  uint256 i = 0 */\n      swap1\n      pop\n        /* \"auction.sol\":2285:2620  for (uint256 i = 0 ; i < _len ; i++){  // ... */\n    tag_109:\n        /* \"auction.sol\":2310:2314  _len */\n      dup3\n        /* \"auction.sol\":2306:2307  i */\n      dup2\n        /* \"auction.sol\":2306:2314  i < _len */\n      lt\n        /* \"auction.sol\":2285:2620  for (uint256 i = 0 ; i < _len ; i++){  // ... */\n      iszero\n      tag_110\n      jumpi\n        /* \"auction.sol\":2360:2366  offers */\n      0x08\n        /* \"auction.sol\":2367:2368  i */\n      dup2\n        /* \"auction.sol\":2360:2369  offers[i] */\n      dup2\n      sload\n      dup2\n      lt\n      tag_112\n      jumpi\n      tag_113\n      tag_79\n      jump\t// in\n    tag_113:\n    tag_112:\n      swap1\n      0x00\n      mstore\n      keccak256(0x00, 0x20)\n      swap1\n      0x03\n      mul\n      add\n        /* \"auction.sol\":2360:2376  offers[i].bidder */\n      0x00\n      add\n      0x00\n      swap1\n      sload\n      swap1\n      0x0100\n      exp\n      swap1\n      div\n      0xffffffffffffffffffffffffffffffffffffffff\n      and\n        /* \"auction.sol\":2345:2376  _addrBidder == offers[i].bidder */\n      0xffffffffffffffffffffffffffffffffffffffff\n      and\n        /* \"auction.sol\":2345:2356  _addrBidder */\n      dup5\n        /* \"auction.sol\":2345:2376  _addrBidder == offers[i].bidder */\n      0xffffffffffffffffffffffffffffffffffffffff\n      and\n      sub\n        /* \"auction.sol\":2341:2609  if (_addrBidder == offers[i].bidder){ // verifica que si ya oferto y cambia la oferta... */\n      tag_115\n      jumpi\n        /* \"auction.sol\":2463:2475  _offerAmount */\n      dup6\n        /* \"auction.sol\":2444:2450  offers */\n      0x08\n        /* \"auction.sol\":2451:2452  i */\n      dup3\n        /* \"auction.sol\":2444:2453  offers[i] */\n      dup2\n      sload\n      dup2\n      lt\n      tag_116\n      jumpi\n      tag_117\n      tag_79\n      jump\t// in\n    tag_117:\n    tag_116:\n      swap1\n      0x00\n      mstore\n      keccak256(0x00, 0x20)\n      swap1\n      0x03\n      mul\n      add\n        /* \"auction.sol\":2444:2460  offers[i].amount */\n      0x01\n      add\n        /* \"auction.sol\":2444:2475  offers[i].amount = _offerAmount */\n      dup2\n      swap1\n      sstore\n      pop\n        /* \"auction.sol\":2516:2531  block.timestamp */\n      timestamp\n        /* \"auction.sol\":2494:2500  offers */\n      0x08\n        /* \"auction.sol\":2501:2502  i */\n      dup3\n        /* \"auction.sol\":2494:2503  offers[i] */\n      dup2\n      sload\n      dup2\n      lt\n      tag_119\n      jumpi\n      tag_120\n      tag_79\n      jump\t// in\n    tag_120:\n    tag_119:\n      swap1\n      0x00\n      mstore\n      keccak256(0x00, 0x20)\n      swap1\n      0x03\n      mul\n      add\n        /* \"auction.sol\":2494:2513  offers[i].offerDate */\n      0x02\n      add\n        /* \"auction.sol\":2494:2531  offers[i].offerDate = block.timestamp */\n      dup2\n      swap1\n      sstore\n      pop\n        /* \"auction.sol\":2568:2569  1 */\n      0x01\n        /* \"auction.sol\":2550:2569  _flagExistOffer = 1 */\n      swap2\n      pop\n        /* \"auction.sol\":2588:2593  break */\n      jump(tag_110)\n        /* \"auction.sol\":2341:2609  if (_addrBidder == offers[i].bidder){ // verifica que si ya oferto y cambia la oferta... */\n    tag_115:\n        /* \"auction.sol\":2317:2320  i++ */\n      dup1\n      dup1\n      0x01\n      add\n      swap2\n      pop\n      pop\n        /* \"auction.sol\":2285:2620  for (uint256 i = 0 ; i < _len ; i++){  // ... */\n      jump(tag_109)\n    tag_110:\n      pop\n        /* \"auction.sol\":2709:2710  0 */\n      0x00\n        /* \"auction.sol\":2690:2705  _flagExistOffer */\n      dup2\n        /* \"auction.sol\":2690:2710  _flagExistOffer == 0 */\n      0xff\n      and\n      sub\n        /* \"auction.sol\":2686:2797  if (_flagExistOffer == 0) {... */\n      tag_122\n      jumpi\n        /* \"auction.sol\":2723:2729  offers */\n      0x08\n        /* \"auction.sol\":2735:2784  offer(_addrBidder, _offerAmount, block.timestamp) */\n      mload(0x40)\n      dup1\n      0x60\n      add\n      0x40\n      mstore\n      dup1\n        /* \"auction.sol\":2741:2752  _addrBidder */\n      dup6\n        /* \"auction.sol\":2735:2784  offer(_addrBidder, _offerAmount, block.timestamp) */\n      0xffffffffffffffffffffffffffffffffffffffff\n      and\n      dup2\n      mstore\n      0x20\n      add\n        /* \"auction.sol\":2754:2766  _offerAmount */\n      dup8\n        /* \"auction.sol\":2735:2784  offer(_addrBidder, _offerAmount, block.timestamp) */\n      dup2\n      mstore\n      0x20\n      add\n        /* \"auction.sol\":2768:2783  block.timestamp */\n      timestamp\n        /* \"auction.sol\":2735:2784  offer(_addrBidder, _offerAmount, block.timestamp) */\n      dup2\n      mstore\n      pop\n        /* \"auction.sol\":2723:2785  offers.push(offer(_addrBidder, _offerAmount, block.timestamp)) */\n      swap1\n      dup1\n      0x01\n      dup2\n      sload\n      add\n      dup1\n      dup3\n      sstore\n      dup1\n      swap2\n      pop\n      pop\n      0x01\n      swap1\n      sub\n      swap1\n      0x00\n      mstore\n      keccak256(0x00, 0x20)\n      swap1\n      0x03\n      mul\n      add\n      0x00\n      swap1\n      swap2\n      swap1\n      swap2\n      swap1\n      swap2\n      pop\n      0x00\n      dup3\n      add\n      mload\n      dup2\n      0x00\n      add\n      exp(0x0100, 0x00)\n      dup2\n      sload\n      dup2\n      0xffffffffffffffffffffffffffffffffffffffff\n      mul\n      not\n      and\n      swap1\n      dup4\n      0xffffffffffffffffffffffffffffffffffffffff\n      and\n      mul\n      or\n      swap1\n      sstore\n      pop\n      0x20\n      dup3\n      add\n      mload\n      dup2\n      0x01\n      add\n      sstore\n      0x40\n      dup3\n      add\n      mload\n      dup2\n      0x02\n      add\n      sstore\n      pop\n      pop\n        /* \"auction.sol\":2686:2797  if (_flagExistOffer == 0) {... */\n    tag_122:\n        /* \"auction.sol\":2832:2833  0 */\n      0x00\n        /* \"auction.sol\":2810:2817  balance */\n      0x0a\n        /* \"auction.sol\":2810:2830  balance[_addrBidder] */\n      0x00\n        /* \"auction.sol\":2818:2829  _addrBidder */\n      dup6\n        /* \"auction.sol\":2810:2830  balance[_addrBidder] */\n      0xffffffffffffffffffffffffffffffffffffffff\n      and\n      0xffffffffffffffffffffffffffffffffffffffff\n      and\n      dup2\n      mstore\n      0x20\n      add\n      swap1\n      dup2\n      mstore\n      0x20\n      add\n      0x00\n      keccak256\n      sload\n        /* \"auction.sol\":2810:2833  balance[_addrBidder]==0 */\n      sub\n        /* \"auction.sol\":2807:2885  if(balance[_addrBidder]==0){... */\n      tag_124\n      jumpi\n        /* \"auction.sol\":2845:2855  uniqueAddr */\n      0x09\n        /* \"auction.sol\":2861:2872  _addrBidder */\n      dup4\n        /* \"auction.sol\":2845:2873  uniqueAddr.push(_addrBidder) */\n      swap1\n      dup1\n      0x01\n      dup2\n      sload\n      add\n      dup1\n      dup3\n      sstore\n      dup1\n      swap2\n      pop\n      pop\n      0x01\n      swap1\n      sub\n      swap1\n      0x00\n      mstore\n      keccak256(0x00, 0x20)\n      add\n      0x00\n      swap1\n      swap2\n      swap1\n      swap2\n      swap1\n      swap2\n      0x0100\n      exp\n      dup2\n      sload\n      dup2\n      0xffffffffffffffffffffffffffffffffffffffff\n      mul\n      not\n      and\n      swap1\n      dup4\n      0xffffffffffffffffffffffffffffffffffffffff\n      and\n      mul\n      or\n      swap1\n      sstore\n      pop\n        /* \"auction.sol\":2807:2885  if(balance[_addrBidder]==0){... */\n    tag_124:\n        /* \"auction.sol\":2919:2931  _offerAmount */\n      dup5\n        /* \"auction.sol\":2895:2902  balance */\n      0x0a\n        /* \"auction.sol\":2895:2915  balance[_addrBidder] */\n      0x00\n        /* \"auction.sol\":2903:2914  _addrBidder */\n      dup6\n        /* \"auction.sol\":2895:2915  balance[_addrBidder] */\n      0xffffffffffffffffffffffffffffffffffffffff\n      and\n      0xffffffffffffffffffffffffffffffffffffffff\n      and\n      dup2\n      mstore\n      0x20\n      add\n      swap1\n      dup2\n      mstore\n      0x20\n      add\n      0x00\n      keccak256\n      0x00\n        /* \"auction.sol\":2895:2931  balance[_addrBidder] += _offerAmount */\n      dup3\n      dup3\n      sload\n      tag_126\n      swap2\n      swap1\n      tag_107\n      jump\t// in\n    tag_126:\n      swap3\n      pop\n      pop\n      dup2\n      swap1\n      sstore\n      pop\n        /* \"auction.sol\":3024:3035  _addrBidder */\n      dup3\n        /* \"auction.sol\":3015:3069  Newoffer(_addrBidder, _offerAmount, block.timestamp  ) */\n      0xffffffffffffffffffffffffffffffffffffffff\n      and\n      0x551de133c3c54f44eeb62d367128007225756725602fc40f3f2fb567e7fdf314\n        /* \"auction.sol\":3037:3049  _offerAmount */\n      dup7\n        /* \"auction.sol\":3051:3066  block.timestamp */\n      timestamp\n        /* \"auction.sol\":3015:3069  Newoffer(_addrBidder, _offerAmount, block.timestamp  ) */\n      mload(0x40)\n      tag_127\n      swap3\n      swap2\n      swap1\n      tag_128\n      jump\t// in\n    tag_127:\n      mload(0x40)\n      dup1\n      swap2\n      sub\n      swap1\n      log2\n        /* \"auction.sol\":3118:3130  extenbidTime */\n      sload(0x04)\n        /* \"auction.sol\":3104:3115  bidDuracion */\n      sload(0x03)\n        /* \"auction.sol\":3104:3130  bidDuracion - extenbidTime */\n      tag_129\n      swap2\n      swap1\n      tag_89\n      jump\t// in\n    tag_129:\n        /* \"auction.sol\":3084:3099  block.timestamp */\n      timestamp\n        /* \"auction.sol\":3084:3131  block.timestamp >= (bidDuracion - extenbidTime) */\n      lt\n        /* \"auction.sol\":3080:3199  if (block.timestamp >= (bidDuracion - extenbidTime)){... */\n      tag_130\n      jumpi\n        /* \"auction.sol\":3175:3187  extenbidTime */\n      sload(0x04)\n        /* \"auction.sol\":3157:3172  block.timestamp */\n      timestamp\n        /* \"auction.sol\":3157:3187  block.timestamp + extenbidTime */\n      tag_131\n      swap2\n      swap1\n      tag_107\n      jump\t// in\n    tag_131:\n        /* \"auction.sol\":3143:3154  bidDuracion */\n      0x03\n        /* \"auction.sol\":3143:3187  bidDuracion = block.timestamp + extenbidTime */\n      dup2\n      swap1\n      sstore\n      pop\n        /* \"auction.sol\":3080:3199  if (block.timestamp >= (bidDuracion - extenbidTime)){... */\n    tag_130:\n        /* \"auction.sol\":2086:3206  {... */\n      pop\n      pop\n      pop\n        /* \"auction.sol\":2054:3281  if( _offerAmount > _limitOffer ){... */\n      jump(tag_132)\n    tag_108:\n        /* \"auction.sol\":3251:3273  revert(\"offer is low\") */\n      mload(0x40)\n      0x08c379a000000000000000000000000000000000000000000000000000000000\n      dup2\n      mstore\n      0x04\n      add\n      tag_133\n      swap1\n      tag_134\n      jump\t// in\n    tag_133:\n      mload(0x40)\n      dup1\n      swap2\n      sub\n      swap1\n      revert\n        /* \"auction.sol\":2054:3281  if( _offerAmount > _limitOffer ){... */\n    tag_132:\n        /* \"auction.sol\":1933:3290  {... */\n      pop\n      pop\n        /* \"auction.sol\":1886:3290  function setOffer() external verifyBid payable {... */\n      jump\t// out\n        /* \"auction.sol\":3982:4504  function returnOffers() external verifyOwner activarBid {... */\n    tag_46:\n        /* \"auction.sol\":1586:1591  owner */\n      0x07\n      0x00\n      swap1\n      sload\n      swap1\n      0x0100\n      exp\n      swap1\n      div\n      0xffffffffffffffffffffffffffffffffffffffff\n      and\n        /* \"auction.sol\":1572:1591  msg.sender == owner */\n      0xffffffffffffffffffffffffffffffffffffffff\n      and\n        /* \"auction.sol\":1572:1582  msg.sender */\n      caller\n        /* \"auction.sol\":1572:1591  msg.sender == owner */\n      0xffffffffffffffffffffffffffffffffffffffff\n      and\n      eq\n        /* \"auction.sol\":1564:1614  require(msg.sender == owner, \"Only Owner enabled\") */\n      tag_136\n      jumpi\n      mload(0x40)\n      0x08c379a000000000000000000000000000000000000000000000000000000000\n      dup2\n      mstore\n      0x04\n      add\n      tag_137\n      swap1\n      tag_59\n      jump\t// in\n    tag_137:\n      mload(0x40)\n      dup1\n      swap2\n      sub\n      swap1\n      revert\n    tag_136:\n        /* \"auction.sol\":1679:1680  1 */\n      0x01\n        /* \"auction.sol\":1666:1676  flagEndBid */\n      0x00\n      0x00\n      swap1\n      sload\n      swap1\n      0x0100\n      exp\n      swap1\n      div\n      0xff\n      and\n        /* \"auction.sol\":1666:1680  flagEndBid ==1 */\n      0xff\n      and\n      eq\n        /* \"auction.sol\":1658:1712  require(flagEndBid ==1 , \"the auction is not enabled\") */\n      tag_139\n      jumpi\n      mload(0x40)\n      0x08c379a000000000000000000000000000000000000000000000000000000000\n      dup2\n      mstore\n      0x04\n      add\n      tag_140\n      swap1\n      tag_141\n      jump\t// in\n    tag_140:\n      mload(0x40)\n      dup1\n      swap2\n      sub\n      swap1\n      revert\n    tag_139:\n        /* \"auction.sol\":4044:4065  uint256 _returnAmount */\n      0x00\n        /* \"auction.sol\":4072:4089  uint256 _maxOffer */\n      0x00\n        /* \"auction.sol\":4092:4102  maxOfferta */\n      sload(0x05)\n        /* \"auction.sol\":4072:4102  uint256 _maxOffer = maxOfferta */\n      swap1\n      pop\n        /* \"auction.sol\":4108:4120  uint256 _len */\n      0x00\n        /* \"auction.sol\":4123:4133  uniqueAddr */\n      0x09\n        /* \"auction.sol\":4123:4140  uniqueAddr.length */\n      dup1\n      sload\n      swap1\n      pop\n        /* \"auction.sol\":4108:4140  uint256 _len = uniqueAddr.length */\n      swap1\n      pop\n        /* \"auction.sol\":4159:4168  uint256 i */\n      0x00\n        /* \"auction.sol\":4169:4170  0 */\n      0x00\n        /* \"auction.sol\":4159:4170  uint256 i=0 */\n      swap1\n      pop\n        /* \"auction.sol\":4154:4447  for (uint256 i=0; i< _len ; i++){... */\n    tag_143:\n        /* \"auction.sol\":4175:4179  _len */\n      dup2\n        /* \"auction.sol\":4172:4173  i */\n      dup2\n        /* \"auction.sol\":4172:4179  i< _len */\n      lt\n        /* \"auction.sol\":4154:4447  for (uint256 i=0; i< _len ; i++){... */\n      iszero\n      tag_144\n      jumpi\n        /* \"auction.sol\":4225:4234  _maxOffer */\n      dup3\n        /* \"auction.sol\":4200:4207  balance */\n      0x0a\n        /* \"auction.sol\":4200:4222  balance[uniqueAddr[i]] */\n      0x00\n        /* \"auction.sol\":4208:4218  uniqueAddr */\n      0x09\n        /* \"auction.sol\":4219:4220  i */\n      dup5\n        /* \"auction.sol\":4208:4221  uniqueAddr[i] */\n      dup2\n      sload\n      dup2\n      lt\n      tag_146\n      jumpi\n      tag_147\n      tag_79\n      jump\t// in\n    tag_147:\n    tag_146:\n      swap1\n      0x00\n      mstore\n      keccak256(0x00, 0x20)\n      add\n      0x00\n      swap1\n      sload\n      swap1\n      0x0100\n      exp\n      swap1\n      div\n      0xffffffffffffffffffffffffffffffffffffffff\n      and\n        /* \"auction.sol\":4200:4222  balance[uniqueAddr[i]] */\n      0xffffffffffffffffffffffffffffffffffffffff\n      and\n      0xffffffffffffffffffffffffffffffffffffffff\n      and\n      dup2\n      mstore\n      0x20\n      add\n      swap1\n      dup2\n      mstore\n      0x20\n      add\n      0x00\n      keccak256\n      sload\n        /* \"auction.sol\":4200:4234  balance[uniqueAddr[i]] < _maxOffer */\n      lt\n        /* \"auction.sol\":4197:4439  if(balance[uniqueAddr[i]] < _maxOffer){... */\n      iszero\n      tag_149\n      jumpi\n        /* \"auction.sol\":4321:4324  100 */\n      0x64\n        /* \"auction.sol\":4317:4318  2 */\n      0x02\n        /* \"auction.sol\":4292:4299  balance */\n      0x0a\n        /* \"auction.sol\":4292:4314  balance[uniqueAddr[i]] */\n      0x00\n        /* \"auction.sol\":4300:4310  uniqueAddr */\n      0x09\n        /* \"auction.sol\":4311:4312  i */\n      dup6\n        /* \"auction.sol\":4300:4313  uniqueAddr[i] */\n      dup2\n      sload\n      dup2\n      lt\n      tag_150\n      jumpi\n      tag_151\n      tag_79\n      jump\t// in\n    tag_151:\n    tag_150:\n      swap1\n      0x00\n      mstore\n      keccak256(0x00, 0x20)\n      add\n      0x00\n      swap1\n      sload\n      swap1\n      0x0100\n      exp\n      swap1\n      div\n      0xffffffffffffffffffffffffffffffffffffffff\n      and\n        /* \"auction.sol\":4292:4314  balance[uniqueAddr[i]] */\n      0xffffffffffffffffffffffffffffffffffffffff\n      and\n      0xffffffffffffffffffffffffffffffffffffffff\n      and\n      dup2\n      mstore\n      0x20\n      add\n      swap1\n      dup2\n      mstore\n      0x20\n      add\n      0x00\n      keccak256\n      sload\n        /* \"auction.sol\":4292:4318  balance[uniqueAddr[i]] * 2 */\n      tag_153\n      swap2\n      swap1\n      tag_103\n      jump\t// in\n    tag_153:\n        /* \"auction.sol\":4292:4324  balance[uniqueAddr[i]] * 2 / 100 */\n      tag_154\n      swap2\n      swap1\n      tag_105\n      jump\t// in\n    tag_154:\n        /* \"auction.sol\":4266:4273  balance */\n      0x0a\n        /* \"auction.sol\":4266:4288  balance[uniqueAddr[i]] */\n      0x00\n        /* \"auction.sol\":4274:4284  uniqueAddr */\n      0x09\n        /* \"auction.sol\":4285:4286  i */\n      dup5\n        /* \"auction.sol\":4274:4287  uniqueAddr[i] */\n      dup2\n      sload\n      dup2\n      lt\n      tag_155\n      jumpi\n      tag_156\n      tag_79\n      jump\t// in\n    tag_156:\n    tag_155:\n      swap1\n      0x00\n      mstore\n      keccak256(0x00, 0x20)\n      add\n      0x00\n      swap1\n      sload\n      swap1\n      0x0100\n      exp\n      swap1\n      div\n      0xffffffffffffffffffffffffffffffffffffffff\n      and\n        /* \"auction.sol\":4266:4288  balance[uniqueAddr[i]] */\n      0xffffffffffffffffffffffffffffffffffffffff\n      and\n      0xffffffffffffffffffffffffffffffffffffffff\n      and\n      dup2\n      mstore\n      0x20\n      add\n      swap1\n      dup2\n      mstore\n      0x20\n      add\n      0x00\n      keccak256\n      sload\n        /* \"auction.sol\":4266:4325  balance[uniqueAddr[i]] - (balance[uniqueAddr[i]] * 2 / 100) */\n      tag_158\n      swap2\n      swap1\n      tag_89\n      jump\t// in\n    tag_158:\n        /* \"auction.sol\":4250:4325  _returnAmount = balance[uniqueAddr[i]] - (balance[uniqueAddr[i]] * 2 / 100) */\n      swap4\n      pop\n        /* \"auction.sol\":4364:4365  0 */\n      0x00\n        /* \"auction.sol\":4340:4347  balance */\n      0x0a\n        /* \"auction.sol\":4340:4362  balance[uniqueAddr[i]] */\n      0x00\n        /* \"auction.sol\":4348:4358  uniqueAddr */\n      0x09\n        /* \"auction.sol\":4359:4360  i */\n      dup5\n        /* \"auction.sol\":4348:4361  uniqueAddr[i] */\n      dup2\n      sload\n      dup2\n      lt\n      tag_159\n      jumpi\n      tag_160\n      tag_79\n      jump\t// in\n    tag_160:\n    tag_159:\n      swap1\n      0x00\n      mstore\n      keccak256(0x00, 0x20)\n      add\n      0x00\n      swap1\n      sload\n      swap1\n      0x0100\n      exp\n      swap1\n      div\n      0xffffffffffffffffffffffffffffffffffffffff\n      and\n        /* \"auction.sol\":4340:4362  balance[uniqueAddr[i]] */\n      0xffffffffffffffffffffffffffffffffffffffff\n      and\n      0xffffffffffffffffffffffffffffffffffffffff\n      and\n      dup2\n      mstore\n      0x20\n      add\n      swap1\n      dup2\n      mstore\n      0x20\n      add\n      0x00\n      keccak256\n        /* \"auction.sol\":4340:4365  balance[uniqueAddr[i]]= 0 */\n      dup2\n      swap1\n      sstore\n      pop\n        /* \"auction.sol\":4389:4399  uniqueAddr */\n      0x09\n        /* \"auction.sol\":4400:4401  i */\n      dup2\n        /* \"auction.sol\":4389:4402  uniqueAddr[i] */\n      dup2\n      sload\n      dup2\n      lt\n      tag_162\n      jumpi\n      tag_163\n      tag_79\n      jump\t// in\n    tag_163:\n    tag_162:\n      swap1\n      0x00\n      mstore\n      keccak256(0x00, 0x20)\n      add\n      0x00\n      swap1\n      sload\n      swap1\n      0x0100\n      exp\n      swap1\n      div\n      0xffffffffffffffffffffffffffffffffffffffff\n      and\n        /* \"auction.sol\":4380:4412  payable (uniqueAddr[i]).transfer */\n      0xffffffffffffffffffffffffffffffffffffffff\n      and\n        /* \"auction.sol\":4380:4427  payable (uniqueAddr[i]).transfer(_returnAmount) */\n      0x08fc\n        /* \"auction.sol\":4413:4426  _returnAmount */\n      dup6\n        /* \"auction.sol\":4380:4427  payable (uniqueAddr[i]).transfer(_returnAmount) */\n      swap1\n      dup2\n      iszero\n      mul\n      swap1\n      mload(0x40)\n      0x00\n      mload(0x40)\n      dup1\n      dup4\n      sub\n      dup2\n      dup6\n      dup9\n      dup9\n      call\n      swap4\n      pop\n      pop\n      pop\n      pop\n      iszero\n      dup1\n      iszero\n      tag_166\n      jumpi\n      returndatacopy(0x00, 0x00, returndatasize)\n      revert(0x00, returndatasize)\n    tag_166:\n      pop\n        /* \"auction.sol\":4197:4439  if(balance[uniqueAddr[i]] < _maxOffer){... */\n    tag_149:\n        /* \"auction.sol\":4182:4185  i++ */\n      dup1\n      dup1\n      0x01\n      add\n      swap2\n      pop\n      pop\n        /* \"auction.sol\":4154:4447  for (uint256 i=0; i< _len ; i++){... */\n      jump(tag_143)\n    tag_144:\n      pop\n        /* \"auction.sol\":4462:4467  owner */\n      0x07\n      0x00\n      swap1\n      sload\n      swap1\n      0x0100\n      exp\n      swap1\n      div\n      0xffffffffffffffffffffffffffffffffffffffff\n      and\n        /* \"auction.sol\":4453:4477  payable (owner).transfer */\n      0xffffffffffffffffffffffffffffffffffffffff\n      and\n        /* \"auction.sol\":4453:4500  payable (owner).transfer(address(this).balance) */\n      0x08fc\n        /* \"auction.sol\":4478:4499  address(this).balance */\n      selfbalance\n        /* \"auction.sol\":4453:4500  payable (owner).transfer(address(this).balance) */\n      swap1\n      dup2\n      iszero\n      mul\n      swap1\n      mload(0x40)\n      0x00\n      mload(0x40)\n      dup1\n      dup4\n      sub\n      dup2\n      dup6\n      dup9\n      dup9\n      call\n      swap4\n      pop\n      pop\n      pop\n      pop\n      iszero\n      dup1\n      iszero\n      tag_168\n      jumpi\n      returndatacopy(0x00, 0x00, returndatasize)\n      revert(0x00, returndatasize)\n    tag_168:\n      pop\n        /* \"auction.sol\":4038:4504  {... */\n      pop\n      pop\n      pop\n        /* \"auction.sol\":3982:4504  function returnOffers() external verifyOwner activarBid {... */\n      jump\t// out\n        /* \"auction.sol\":3627:3730  function getWin() external view returns (address, uint256){... */\n    tag_49:\n        /* \"auction.sol\":3668:3675  address */\n      0x00\n        /* \"auction.sol\":3677:3684  uint256 */\n      0x00\n        /* \"auction.sol\":3699:3708  winBidder */\n      0x06\n      0x00\n      swap1\n      sload\n      swap1\n      0x0100\n      exp\n      swap1\n      div\n      0xffffffffffffffffffffffffffffffffffffffff\n      and\n        /* \"auction.sol\":3710:3720  maxOfferta */\n      sload(0x05)\n        /* \"auction.sol\":3692:3722  return(winBidder, maxOfferta ) */\n      swap2\n      pop\n      swap2\n      pop\n        /* \"auction.sol\":3627:3730  function getWin() external view returns (address, uint256){... */\n      swap1\n      swap2\n      jump\t// out\n        /* \"auction.sol\":282:305  uint256 public saltoBid */\n    tag_54:\n      sload(0x02)\n      dup2\n      jump\t// out\n        /* \"#utility.yul\":7:84   */\n    tag_170:\n        /* \"#utility.yul\":44:51   */\n      0x00\n        /* \"#utility.yul\":73:78   */\n      dup2\n        /* \"#utility.yul\":62:78   */\n      swap1\n      pop\n        /* \"#utility.yul\":7:84   */\n      swap2\n      swap1\n      pop\n      jump\t// out\n        /* \"#utility.yul\":90:208   */\n    tag_171:\n        /* \"#utility.yul\":177:201   */\n      tag_204\n        /* \"#utility.yul\":195:200   */\n      dup2\n        /* \"#utility.yul\":177:201   */\n      tag_170\n      jump\t// in\n    tag_204:\n        /* \"#utility.yul\":172:175   */\n      dup3\n        /* \"#utility.yul\":165:202   */\n      mstore\n        /* \"#utility.yul\":90:208   */\n      pop\n      pop\n      jump\t// out\n        /* \"#utility.yul\":214:436   */\n    tag_18:\n        /* \"#utility.yul\":307:311   */\n      0x00\n        /* \"#utility.yul\":345:347   */\n      0x20\n        /* \"#utility.yul\":334:343   */\n      dup3\n        /* \"#utility.yul\":330:348   */\n      add\n        /* \"#utility.yul\":322:348   */\n      swap1\n      pop\n        /* \"#utility.yul\":358:429   */\n      tag_206\n        /* \"#utility.yul\":426:427   */\n      0x00\n        /* \"#utility.yul\":415:424   */\n      dup4\n        /* \"#utility.yul\":411:428   */\n      add\n        /* \"#utility.yul\":402:408   */\n      dup5\n        /* \"#utility.yul\":358:429   */\n      tag_171\n      jump\t// in\n    tag_206:\n        /* \"#utility.yul\":214:436   */\n      swap3\n      swap2\n      pop\n      pop\n      jump\t// out\n        /* \"#utility.yul\":442:577   */\n    tag_172:\n        /* \"#utility.yul\":530:536   */\n      0x00\n        /* \"#utility.yul\":564:569   */\n      dup2\n        /* \"#utility.yul\":558:570   */\n      mload\n        /* \"#utility.yul\":548:570   */\n      swap1\n      pop\n        /* \"#utility.yul\":442:577   */\n      swap2\n      swap1\n      pop\n      jump\t// out\n        /* \"#utility.yul\":583:788   */\n    tag_173:\n        /* \"#utility.yul\":703:714   */\n      0x00\n        /* \"#utility.yul\":737:743   */\n      dup3\n        /* \"#utility.yul\":732:735   */\n      dup3\n        /* \"#utility.yul\":725:744   */\n      mstore\n        /* \"#utility.yul\":777:781   */\n      0x20\n        /* \"#utility.yul\":772:775   */\n      dup3\n        /* \"#utility.yul\":768:782   */\n      add\n        /* \"#utility.yul\":753:782   */\n      swap1\n      pop\n        /* \"#utility.yul\":583:788   */\n      swap3\n      swap2\n      pop\n      pop\n      jump\t// out\n        /* \"#utility.yul\":794:947   */\n    tag_174:\n        /* \"#utility.yul\":882:886   */\n      0x00\n        /* \"#utility.yul\":905:908   */\n      dup2\n        /* \"#utility.yul\":897:908   */\n      swap1\n      pop\n        /* \"#utility.yul\":935:939   */\n      0x20\n        /* \"#utility.yul\":930:933   */\n      dup3\n        /* \"#utility.yul\":926:940   */\n      add\n        /* \"#utility.yul\":918:940   */\n      swap1\n      pop\n        /* \"#utility.yul\":794:947   */\n      swap2\n      swap1\n      pop\n      jump\t// out\n        /* \"#utility.yul\":953:1079   */\n    tag_175:\n        /* \"#utility.yul\":990:997   */\n      0x00\n        /* \"#utility.yul\":1030:1072   */\n      0xffffffffffffffffffffffffffffffffffffffff\n        /* \"#utility.yul\":1023:1028   */\n      dup3\n        /* \"#utility.yul\":1019:1073   */\n      and\n        /* \"#utility.yul\":1008:1073   */\n      swap1\n      pop\n        /* \"#utility.yul\":953:1079   */\n      swap2\n      swap1\n      pop\n      jump\t// out\n        /* \"#utility.yul\":1085:1181   */\n    tag_176:\n        /* \"#utility.yul\":1122:1129   */\n      0x00\n        /* \"#utility.yul\":1151:1175   */\n      tag_212\n        /* \"#utility.yul\":1169:1174   */\n      dup3\n        /* \"#utility.yul\":1151:1175   */\n      tag_175\n      jump\t// in\n    tag_212:\n        /* \"#utility.yul\":1140:1175   */\n      swap1\n      pop\n        /* \"#utility.yul\":1085:1181   */\n      swap2\n      swap1\n      pop\n      jump\t// out\n        /* \"#utility.yul\":1187:1295   */\n    tag_177:\n        /* \"#utility.yul\":1264:1288   */\n      tag_214\n        /* \"#utility.yul\":1282:1287   */\n      dup2\n        /* \"#utility.yul\":1264:1288   */\n      tag_176\n      jump\t// in\n    tag_214:\n        /* \"#utility.yul\":1259:1262   */\n      dup3\n        /* \"#utility.yul\":1252:1289   */\n      mstore\n        /* \"#utility.yul\":1187:1295   */\n      pop\n      pop\n      jump\t// out\n        /* \"#utility.yul\":1301:1409   */\n    tag_178:\n        /* \"#utility.yul\":1378:1402   */\n      tag_216\n        /* \"#utility.yul\":1396:1401   */\n      dup2\n        /* \"#utility.yul\":1378:1402   */\n      tag_170\n      jump\t// in\n    tag_216:\n        /* \"#utility.yul\":1373:1376   */\n      dup3\n        /* \"#utility.yul\":1366:1403   */\n      mstore\n        /* \"#utility.yul\":1301:1409   */\n      pop\n      pop\n      jump\t// out\n        /* \"#utility.yul\":1467:2139   */\n    tag_179:\n        /* \"#utility.yul\":1596:1600   */\n      0x60\n        /* \"#utility.yul\":1591:1594   */\n      dup3\n        /* \"#utility.yul\":1587:1601   */\n      add\n        /* \"#utility.yul\":1685:1689   */\n      0x00\n        /* \"#utility.yul\":1678:1683   */\n      dup3\n        /* \"#utility.yul\":1674:1690   */\n      add\n        /* \"#utility.yul\":1668:1691   */\n      mload\n        /* \"#utility.yul\":1704:1767   */\n      tag_218\n        /* \"#utility.yul\":1761:1765   */\n      0x00\n        /* \"#utility.yul\":1756:1759   */\n      dup6\n        /* \"#utility.yul\":1752:1766   */\n      add\n        /* \"#utility.yul\":1738:1750   */\n      dup3\n        /* \"#utility.yul\":1704:1767   */\n      tag_177\n      jump\t// in\n    tag_218:\n        /* \"#utility.yul\":1611:1777   */\n      pop\n        /* \"#utility.yul\":1861:1865   */\n      0x20\n        /* \"#utility.yul\":1854:1859   */\n      dup3\n        /* \"#utility.yul\":1850:1866   */\n      add\n        /* \"#utility.yul\":1844:1867   */\n      mload\n        /* \"#utility.yul\":1880:1943   */\n      tag_219\n        /* \"#utility.yul\":1937:1941   */\n      0x20\n        /* \"#utility.yul\":1932:1935   */\n      dup6\n        /* \"#utility.yul\":1928:1942   */\n      add\n        /* \"#utility.yul\":1914:1926   */\n      dup3\n        /* \"#utility.yul\":1880:1943   */\n      tag_178\n      jump\t// in\n    tag_219:\n        /* \"#utility.yul\":1787:1953   */\n      pop\n        /* \"#utility.yul\":2040:2044   */\n      0x40\n        /* \"#utility.yul\":2033:2038   */\n      dup3\n        /* \"#utility.yul\":2029:2045   */\n      add\n        /* \"#utility.yul\":2023:2046   */\n      mload\n        /* \"#utility.yul\":2059:2122   */\n      tag_220\n        /* \"#utility.yul\":2116:2120   */\n      0x40\n        /* \"#utility.yul\":2111:2114   */\n      dup6\n        /* \"#utility.yul\":2107:2121   */\n      add\n        /* \"#utility.yul\":2093:2105   */\n      dup3\n        /* \"#utility.yul\":2059:2122   */\n      tag_178\n      jump\t// in\n    tag_220:\n        /* \"#utility.yul\":1963:2132   */\n      pop\n        /* \"#utility.yul\":1565:2139   */\n      pop\n        /* \"#utility.yul\":1467:2139   */\n      pop\n      pop\n      jump\t// out\n        /* \"#utility.yul\":2145:2408   */\n    tag_180:\n        /* \"#utility.yul\":2256:2266   */\n      0x00\n        /* \"#utility.yul\":2277:2365   */\n      tag_222\n        /* \"#utility.yul\":2361:2364   */\n      dup4\n        /* \"#utility.yul\":2353:2359   */\n      dup4\n        /* \"#utility.yul\":2277:2365   */\n      tag_179\n      jump\t// in\n    tag_222:\n        /* \"#utility.yul\":2397:2401   */\n      0x60\n        /* \"#utility.yul\":2392:2395   */\n      dup4\n        /* \"#utility.yul\":2388:2402   */\n      add\n        /* \"#utility.yul\":2374:2402   */\n      swap1\n      pop\n        /* \"#utility.yul\":2145:2408   */\n      swap3\n      swap2\n      pop\n      pop\n      jump\t// out\n        /* \"#utility.yul\":2414:2548   */\n    tag_181:\n        /* \"#utility.yul\":2505:2509   */\n      0x00\n        /* \"#utility.yul\":2537:2541   */\n      0x20\n        /* \"#utility.yul\":2532:2535   */\n      dup3\n        /* \"#utility.yul\":2528:2542   */\n      add\n        /* \"#utility.yul\":2520:2542   */\n      swap1\n      pop\n        /* \"#utility.yul\":2414:2548   */\n      swap2\n      swap1\n      pop\n      jump\t// out\n        /* \"#utility.yul\":2610:3510   */\n    tag_182:\n        /* \"#utility.yul\":2771:2774   */\n      0x00\n        /* \"#utility.yul\":2800:2875   */\n      tag_225\n        /* \"#utility.yul\":2869:2874   */\n      dup3\n        /* \"#utility.yul\":2800:2875   */\n      tag_172\n      jump\t// in\n    tag_225:\n        /* \"#utility.yul\":2891:2998   */\n      tag_226\n        /* \"#utility.yul\":2991:2997   */\n      dup2\n        /* \"#utility.yul\":2986:2989   */\n      dup6\n        /* \"#utility.yul\":2891:2998   */\n      tag_173\n      jump\t// in\n    tag_226:\n        /* \"#utility.yul\":2884:2998   */\n      swap4\n      pop\n        /* \"#utility.yul\":3022:3099   */\n      tag_227\n        /* \"#utility.yul\":3093:3098   */\n      dup4\n        /* \"#utility.yul\":3022:3099   */\n      tag_174\n      jump\t// in\n    tag_227:\n        /* \"#utility.yul\":3122:3129   */\n      dup1\n        /* \"#utility.yul\":3153:3154   */\n      0x00\n        /* \"#utility.yul\":3138:3485   */\n    tag_228:\n        /* \"#utility.yul\":3163:3169   */\n      dup4\n        /* \"#utility.yul\":3160:3161   */\n      dup2\n        /* \"#utility.yul\":3157:3170   */\n      lt\n        /* \"#utility.yul\":3138:3485   */\n      iszero\n      tag_230\n      jumpi\n        /* \"#utility.yul\":3239:3245   */\n      dup2\n        /* \"#utility.yul\":3233:3246   */\n      mload\n        /* \"#utility.yul\":3266:3371   */\n      tag_231\n        /* \"#utility.yul\":3367:3370   */\n      dup9\n        /* \"#utility.yul\":3352:3365   */\n      dup3\n        /* \"#utility.yul\":3266:3371   */\n      tag_180\n      jump\t// in\n    tag_231:\n        /* \"#utility.yul\":3259:3371   */\n      swap8\n      pop\n        /* \"#utility.yul\":3394:3475   */\n      tag_232\n        /* \"#utility.yul\":3468:3474   */\n      dup4\n        /* \"#utility.yul\":3394:3475   */\n      tag_181\n      jump\t// in\n    tag_232:\n        /* \"#utility.yul\":3384:3475   */\n      swap3\n      pop\n        /* \"#utility.yul\":3198:3485   */\n      pop\n        /* \"#utility.yul\":3185:3186   */\n      0x01\n        /* \"#utility.yul\":3182:3183   */\n      dup2\n        /* \"#utility.yul\":3178:3187   */\n      add\n        /* \"#utility.yul\":3173:3187   */\n      swap1\n      pop\n        /* \"#utility.yul\":3138:3485   */\n      jump(tag_228)\n    tag_230:\n        /* \"#utility.yul\":3142:3156   */\n      pop\n        /* \"#utility.yul\":3501:3504   */\n      dup6\n        /* \"#utility.yul\":3494:3504   */\n      swap4\n      pop\n        /* \"#utility.yul\":2776:3510   */\n      pop\n      pop\n      pop\n        /* \"#utility.yul\":2610:3510   */\n      swap3\n      swap2\n      pop\n      pop\n      jump\t// out\n        /* \"#utility.yul\":3516:3973   */\n    tag_30:\n        /* \"#utility.yul\":3701:3705   */\n      0x00\n        /* \"#utility.yul\":3739:3741   */\n      0x20\n        /* \"#utility.yul\":3728:3737   */\n      dup3\n        /* \"#utility.yul\":3724:3742   */\n      add\n        /* \"#utility.yul\":3716:3742   */\n      swap1\n      pop\n        /* \"#utility.yul\":3788:3797   */\n      dup2\n        /* \"#utility.yul\":3782:3786   */\n      dup2\n        /* \"#utility.yul\":3778:3798   */\n      sub\n        /* \"#utility.yul\":3774:3775   */\n      0x00\n        /* \"#utility.yul\":3763:3772   */\n      dup4\n        /* \"#utility.yul\":3759:3776   */\n      add\n        /* \"#utility.yul\":3752:3799   */\n      mstore\n        /* \"#utility.yul\":3816:3966   */\n      tag_234\n        /* \"#utility.yul\":3961:3965   */\n      dup2\n        /* \"#utility.yul\":3952:3958   */\n      dup5\n        /* \"#utility.yul\":3816:3966   */\n      tag_182\n      jump\t// in\n    tag_234:\n        /* \"#utility.yul\":3808:3966   */\n      swap1\n      pop\n        /* \"#utility.yul\":3516:3973   */\n      swap3\n      swap2\n      pop\n      pop\n      jump\t// out\n        /* \"#utility.yul\":3979:4097   */\n    tag_183:\n        /* \"#utility.yul\":4066:4090   */\n      tag_236\n        /* \"#utility.yul\":4084:4089   */\n      dup2\n        /* \"#utility.yul\":4066:4090   */\n      tag_176\n      jump\t// in\n    tag_236:\n        /* \"#utility.yul\":4061:4064   */\n      dup3\n        /* \"#utility.yul\":4054:4091   */\n      mstore\n        /* \"#utility.yul\":3979:4097   */\n      pop\n      pop\n      jump\t// out\n        /* \"#utility.yul\":4103:4435   */\n    tag_51:\n        /* \"#utility.yul\":4224:4228   */\n      0x00\n        /* \"#utility.yul\":4262:4264   */\n      0x40\n        /* \"#utility.yul\":4251:4260   */\n      dup3\n        /* \"#utility.yul\":4247:4265   */\n      add\n        /* \"#utility.yul\":4239:4265   */\n      swap1\n      pop\n        /* \"#utility.yul\":4275:4346   */\n      tag_238\n        /* \"#utility.yul\":4343:4344   */\n      0x00\n        /* \"#utility.yul\":4332:4341   */\n      dup4\n        /* \"#utility.yul\":4328:4345   */\n      add\n        /* \"#utility.yul\":4319:4325   */\n      dup6\n        /* \"#utility.yul\":4275:4346   */\n      tag_183\n      jump\t// in\n    tag_238:\n        /* \"#utility.yul\":4356:4428   */\n      tag_239\n        /* \"#utility.yul\":4424:4426   */\n      0x20\n        /* \"#utility.yul\":4413:4422   */\n      dup4\n        /* \"#utility.yul\":4409:4427   */\n      add\n        /* \"#utility.yul\":4400:4406   */\n      dup5\n        /* \"#utility.yul\":4356:4428   */\n      tag_171\n      jump\t// in\n    tag_239:\n        /* \"#utility.yul\":4103:4435   */\n      swap4\n      swap3\n      pop\n      pop\n      pop\n      jump\t// out\n        /* \"#utility.yul\":4441:4610   */\n    tag_184:\n        /* \"#utility.yul\":4525:4536   */\n      0x00\n        /* \"#utility.yul\":4559:4565   */\n      dup3\n        /* \"#utility.yul\":4554:4557   */\n      dup3\n        /* \"#utility.yul\":4547:4566   */\n      mstore\n        /* \"#utility.yul\":4599:4603   */\n      0x20\n        /* \"#utility.yul\":4594:4597   */\n      dup3\n        /* \"#utility.yul\":4590:4604   */\n      add\n        /* \"#utility.yul\":4575:4604   */\n      swap1\n      pop\n        /* \"#utility.yul\":4441:4610   */\n      swap3\n      swap2\n      pop\n      pop\n      jump\t// out\n        /* \"#utility.yul\":4616:4784   */\n    tag_185:\n        /* \"#utility.yul\":4756:4776   */\n      0x4f6e6c79204f776e657220656e61626c65640000000000000000000000000000\n        /* \"#utility.yul\":4752:4753   */\n      0x00\n        /* \"#utility.yul\":4744:4750   */\n      dup3\n        /* \"#utility.yul\":4740:4754   */\n      add\n        /* \"#utility.yul\":4733:4777   */\n      mstore\n        /* \"#utility.yul\":4616:4784   */\n      pop\n      jump\t// out\n        /* \"#utility.yul\":4790:5156   */\n    tag_186:\n        /* \"#utility.yul\":4932:4935   */\n      0x00\n        /* \"#utility.yul\":4953:5020   */\n      tag_243\n        /* \"#utility.yul\":5017:5019   */\n      0x12\n        /* \"#utility.yul\":5012:5015   */\n      dup4\n        /* \"#utility.yul\":4953:5020   */\n      tag_184\n      jump\t// in\n    tag_243:\n        /* \"#utility.yul\":4946:5020   */\n      swap2\n      pop\n        /* \"#utility.yul\":5029:5122   */\n      tag_244\n        /* \"#utility.yul\":5118:5121   */\n      dup3\n        /* \"#utility.yul\":5029:5122   */\n      tag_185\n      jump\t// in\n    tag_244:\n        /* \"#utility.yul\":5147:5149   */\n      0x20\n        /* \"#utility.yul\":5142:5145   */\n      dup3\n        /* \"#utility.yul\":5138:5150   */\n      add\n        /* \"#utility.yul\":5131:5150   */\n      swap1\n      pop\n        /* \"#utility.yul\":4790:5156   */\n      swap2\n      swap1\n      pop\n      jump\t// out\n        /* \"#utility.yul\":5162:5581   */\n    tag_59:\n        /* \"#utility.yul\":5328:5332   */\n      0x00\n        /* \"#utility.yul\":5366:5368   */\n      0x20\n        /* \"#utility.yul\":5355:5364   */\n      dup3\n        /* \"#utility.yul\":5351:5369   */\n      add\n        /* \"#utility.yul\":5343:5369   */\n      swap1\n      pop\n        /* \"#utility.yul\":5415:5424   */\n      dup2\n        /* \"#utility.yul\":5409:5413   */\n      dup2\n        /* \"#utility.yul\":5405:5425   */\n      sub\n        /* \"#utility.yul\":5401:5402   */\n      0x00\n        /* \"#utility.yul\":5390:5399   */\n      dup4\n        /* \"#utility.yul\":5386:5403   */\n      add\n        /* \"#utility.yul\":5379:5426   */\n      mstore\n        /* \"#utility.yul\":5443:5574   */\n      tag_246\n        /* \"#utility.yul\":5569:5573   */\n      dup2\n        /* \"#utility.yul\":5443:5574   */\n      tag_186\n      jump\t// in\n    tag_246:\n        /* \"#utility.yul\":5435:5574   */\n      swap1\n      pop\n        /* \"#utility.yul\":5162:5581   */\n      swap2\n      swap1\n      pop\n      jump\t// out\n        /* \"#utility.yul\":5587:5756   */\n    tag_187:\n        /* \"#utility.yul\":5727:5748   */\n      0x5468652061756374696f6e206973206f76657200000000000000000000000000\n        /* \"#utility.yul\":5723:5724   */\n      0x00\n        /* \"#utility.yul\":5715:5721   */\n      dup3\n        /* \"#utility.yul\":5711:5725   */\n      add\n        /* \"#utility.yul\":5704:5749   */\n      mstore\n        /* \"#utility.yul\":5587:5756   */\n      pop\n      jump\t// out\n        /* \"#utility.yul\":5762:6128   */\n    tag_188:\n        /* \"#utility.yul\":5904:5907   */\n      0x00\n        /* \"#utility.yul\":5925:5992   */\n      tag_249\n        /* \"#utility.yul\":5989:5991   */\n      0x13\n        /* \"#utility.yul\":5984:5987   */\n      dup4\n        /* \"#utility.yul\":5925:5992   */\n      tag_184\n      jump\t// in\n    tag_249:\n        /* \"#utility.yul\":5918:5992   */\n      swap2\n      pop\n        /* \"#utility.yul\":6001:6094   */\n      tag_250\n        /* \"#utility.yul\":6090:6093   */\n      dup3\n        /* \"#utility.yul\":6001:6094   */\n      tag_187\n      jump\t// in\n    tag_250:\n        /* \"#utility.yul\":6119:6121   */\n      0x20\n        /* \"#utility.yul\":6114:6117   */\n      dup3\n        /* \"#utility.yul\":6110:6122   */\n      add\n        /* \"#utility.yul\":6103:6122   */\n      swap1\n      pop\n        /* \"#utility.yul\":5762:6128   */\n      swap2\n      swap1\n      pop\n      jump\t// out\n        /* \"#utility.yul\":6134:6553   */\n    tag_69:\n        /* \"#utility.yul\":6300:6304   */\n      0x00\n        /* \"#utility.yul\":6338:6340   */\n      0x20\n        /* \"#utility.yul\":6327:6336   */\n      dup3\n        /* \"#utility.yul\":6323:6341   */\n      add\n        /* \"#utility.yul\":6315:6341   */\n      swap1\n      pop\n        /* \"#utility.yul\":6387:6396   */\n      dup2\n        /* \"#utility.yul\":6381:6385   */\n      dup2\n        /* \"#utility.yul\":6377:6397   */\n      sub\n        /* \"#utility.yul\":6373:6374   */\n      0x00\n        /* \"#utility.yul\":6362:6371   */\n      dup4\n        /* \"#utility.yul\":6358:6375   */\n      add\n        /* \"#utility.yul\":6351:6398   */\n      mstore\n        /* \"#utility.yul\":6415:6546   */\n      tag_252\n        /* \"#utility.yul\":6541:6545   */\n      dup2\n        /* \"#utility.yul\":6415:6546   */\n      tag_188\n      jump\t// in\n    tag_252:\n        /* \"#utility.yul\":6407:6546   */\n      swap1\n      pop\n        /* \"#utility.yul\":6134:6553   */\n      swap2\n      swap1\n      pop\n      jump\t// out\n        /* \"#utility.yul\":6559:6732   */\n    tag_189:\n        /* \"#utility.yul\":6699:6724   */\n      0x5468652061756374696f6e206861732065787069726564000000000000000000\n        /* \"#utility.yul\":6695:6696   */\n      0x00\n        /* \"#utility.yul\":6687:6693   */\n      dup3\n        /* \"#utility.yul\":6683:6697   */\n      add\n        /* \"#utility.yul\":6676:6725   */\n      mstore\n        /* \"#utility.yul\":6559:6732   */\n      pop\n      jump\t// out\n        /* \"#utility.yul\":6738:7104   */\n    tag_190:\n        /* \"#utility.yul\":6880:6883   */\n      0x00\n        /* \"#utility.yul\":6901:6968   */\n      tag_255\n        /* \"#utility.yul\":6965:6967   */\n      0x17\n        /* \"#utility.yul\":6960:6963   */\n      dup4\n        /* \"#utility.yul\":6901:6968   */\n      tag_184\n      jump\t// in\n    tag_255:\n        /* \"#utility.yul\":6894:6968   */\n      swap2\n      pop\n        /* \"#utility.yul\":6977:7070   */\n      tag_256\n        /* \"#utility.yul\":7066:7069   */\n      dup3\n        /* \"#utility.yul\":6977:7070   */\n      tag_189\n      jump\t// in\n    tag_256:\n        /* \"#utility.yul\":7095:7097   */\n      0x20\n        /* \"#utility.yul\":7090:7093   */\n      dup3\n        /* \"#utility.yul\":7086:7098   */\n      add\n        /* \"#utility.yul\":7079:7098   */\n      swap1\n      pop\n        /* \"#utility.yul\":6738:7104   */\n      swap2\n      swap1\n      pop\n      jump\t// out\n        /* \"#utility.yul\":7110:7529   */\n    tag_72:\n        /* \"#utility.yul\":7276:7280   */\n      0x00\n        /* \"#utility.yul\":7314:7316   */\n      0x20\n        /* \"#utility.yul\":7303:7312   */\n      dup3\n        /* \"#utility.yul\":7299:7317   */\n      add\n        /* \"#utility.yul\":7291:7317   */\n      swap1\n      pop\n        /* \"#utility.yul\":7363:7372   */\n      dup2\n        /* \"#utility.yul\":7357:7361   */\n      dup2\n        /* \"#utility.yul\":7353:7373   */\n      sub\n        /* \"#utility.yul\":7349:7350   */\n      0x00\n        /* \"#utility.yul\":7338:7347   */\n      dup4\n        /* \"#utility.yul\":7334:7351   */\n      add\n        /* \"#utility.yul\":7327:7374   */\n      mstore\n        /* \"#utility.yul\":7391:7522   */\n      tag_258\n        /* \"#utility.yul\":7517:7521   */\n      dup2\n        /* \"#utility.yul\":7391:7522   */\n      tag_190\n      jump\t// in\n    tag_258:\n        /* \"#utility.yul\":7383:7522   */\n      swap1\n      pop\n        /* \"#utility.yul\":7110:7529   */\n      swap2\n      swap1\n      pop\n      jump\t// out\n        /* \"#utility.yul\":7535:7715   */\n    tag_79:\n        /* \"#utility.yul\":7583:7660   */\n      0x4e487b7100000000000000000000000000000000000000000000000000000000\n        /* \"#utility.yul\":7580:7581   */\n      0x00\n        /* \"#utility.yul\":7573:7661   */\n      mstore\n        /* \"#utility.yul\":7680:7684   */\n      0x32\n        /* \"#utility.yul\":7677:7678   */\n      0x04\n        /* \"#utility.yul\":7670:7685   */\n      mstore\n        /* \"#utility.yul\":7704:7708   */\n      0x24\n        /* \"#utility.yul\":7701:7702   */\n      0x00\n        /* \"#utility.yul\":7694:7709   */\n      revert\n        /* \"#utility.yul\":7721:7894   */\n    tag_191:\n        /* \"#utility.yul\":7861:7886   */\n      0x4e6f2065732076616c69646f206f6666657274616e7465000000000000000000\n        /* \"#utility.yul\":7857:7858   */\n      0x00\n        /* \"#utility.yul\":7849:7855   */\n      dup3\n        /* \"#utility.yul\":7845:7859   */\n      add\n        /* \"#utility.yul\":7838:7887   */\n      mstore\n        /* \"#utility.yul\":7721:7894   */\n      pop\n      jump\t// out\n        /* \"#utility.yul\":7900:8266   */\n    tag_192:\n        /* \"#utility.yul\":8042:8045   */\n      0x00\n        /* \"#utility.yul\":8063:8130   */\n      tag_262\n        /* \"#utility.yul\":8127:8129   */\n      0x17\n        /* \"#utility.yul\":8122:8125   */\n      dup4\n        /* \"#utility.yul\":8063:8130   */\n      tag_184\n      jump\t// in\n    tag_262:\n        /* \"#utility.yul\":8056:8130   */\n      swap2\n      pop\n        /* \"#utility.yul\":8139:8232   */\n      tag_263\n        /* \"#utility.yul\":8228:8231   */\n      dup3\n        /* \"#utility.yul\":8139:8232   */\n      tag_191\n      jump\t// in\n    tag_263:\n        /* \"#utility.yul\":8257:8259   */\n      0x20\n        /* \"#utility.yul\":8252:8255   */\n      dup3\n        /* \"#utility.yul\":8248:8260   */\n      add\n        /* \"#utility.yul\":8241:8260   */\n      swap1\n      pop\n        /* \"#utility.yul\":7900:8266   */\n      swap2\n      swap1\n      pop\n      jump\t// out\n        /* \"#utility.yul\":8272:8691   */\n    tag_84:\n        /* \"#utility.yul\":8438:8442   */\n      0x00\n        /* \"#utility.yul\":8476:8478   */\n      0x20\n        /* \"#utility.yul\":8465:8474   */\n      dup3\n        /* \"#utility.yul\":8461:8479   */\n      add\n        /* \"#utility.yul\":8453:8479   */\n      swap1\n      pop\n        /* \"#utility.yul\":8525:8534   */\n      dup2\n        /* \"#utility.yul\":8519:8523   */\n      dup2\n        /* \"#utility.yul\":8515:8535   */\n      sub\n        /* \"#utility.yul\":8511:8512   */\n      0x00\n        /* \"#utility.yul\":8500:8509   */\n      dup4\n        /* \"#utility.yul\":8496:8513   */\n      add\n        /* \"#utility.yul\":8489:8536   */\n      mstore\n        /* \"#utility.yul\":8553:8684   */\n      tag_265\n        /* \"#utility.yul\":8679:8683   */\n      dup2\n        /* \"#utility.yul\":8553:8684   */\n      tag_192\n      jump\t// in\n    tag_265:\n        /* \"#utility.yul\":8545:8684   */\n      swap1\n      pop\n        /* \"#utility.yul\":8272:8691   */\n      swap2\n      swap1\n      pop\n      jump\t// out\n        /* \"#utility.yul\":8697:8877   */\n    tag_193:\n        /* \"#utility.yul\":8745:8822   */\n      0x4e487b7100000000000000000000000000000000000000000000000000000000\n        /* \"#utility.yul\":8742:8743   */\n      0x00\n        /* \"#utility.yul\":8735:8823   */\n      mstore\n        /* \"#utility.yul\":8842:8846   */\n      0x11\n        /* \"#utility.yul\":8839:8840   */\n      0x04\n        /* \"#utility.yul\":8832:8847   */\n      mstore\n        /* \"#utility.yul\":8866:8870   */\n      0x24\n        /* \"#utility.yul\":8863:8864   */\n      0x00\n        /* \"#utility.yul\":8856:8871   */\n      revert\n        /* \"#utility.yul\":8883:9077   */\n    tag_89:\n        /* \"#utility.yul\":8923:8927   */\n      0x00\n        /* \"#utility.yul\":8943:8963   */\n      tag_268\n        /* \"#utility.yul\":8961:8962   */\n      dup3\n        /* \"#utility.yul\":8943:8963   */\n      tag_170\n      jump\t// in\n    tag_268:\n        /* \"#utility.yul\":8938:8963   */\n      swap2\n      pop\n        /* \"#utility.yul\":8977:8997   */\n      tag_269\n        /* \"#utility.yul\":8995:8996   */\n      dup4\n        /* \"#utility.yul\":8977:8997   */\n      tag_170\n      jump\t// in\n    tag_269:\n        /* \"#utility.yul\":8972:8997   */\n      swap3\n      pop\n        /* \"#utility.yul\":9021:9022   */\n      dup3\n        /* \"#utility.yul\":9018:9019   */\n      dup3\n        /* \"#utility.yul\":9014:9023   */\n      sub\n        /* \"#utility.yul\":9006:9023   */\n      swap1\n      pop\n        /* \"#utility.yul\":9045:9046   */\n      dup2\n        /* \"#utility.yul\":9039:9043   */\n      dup2\n        /* \"#utility.yul\":9036:9047   */\n      gt\n        /* \"#utility.yul\":9033:9070   */\n      iszero\n      tag_270\n      jumpi\n        /* \"#utility.yul\":9050:9068   */\n      tag_271\n      tag_193\n      jump\t// in\n    tag_271:\n        /* \"#utility.yul\":9033:9070   */\n    tag_270:\n        /* \"#utility.yul\":8883:9077   */\n      swap3\n      swap2\n      pop\n      pop\n      jump\t// out\n        /* \"#utility.yul\":9083:9252   */\n    tag_194:\n        /* \"#utility.yul\":9223:9244   */\n      0x4e6f206861792070617261207265746972617200000000000000000000000000\n        /* \"#utility.yul\":9219:9220   */\n      0x00\n        /* \"#utility.yul\":9211:9217   */\n      dup3\n        /* \"#utility.yul\":9207:9221   */\n      add\n        /* \"#utility.yul\":9200:9245   */\n      mstore\n        /* \"#utility.yul\":9083:9252   */\n      pop\n      jump\t// out\n        /* \"#utility.yul\":9258:9624   */\n    tag_195:\n        /* \"#utility.yul\":9400:9403   */\n      0x00\n        /* \"#utility.yul\":9421:9488   */\n      tag_274\n        /* \"#utility.yul\":9485:9487   */\n      0x13\n        /* \"#utility.yul\":9480:9483   */\n      dup4\n        /* \"#utility.yul\":9421:9488   */\n      tag_184\n      jump\t// in\n    tag_274:\n        /* \"#utility.yul\":9414:9488   */\n      swap2\n      pop\n        /* \"#utility.yul\":9497:9590   */\n      tag_275\n        /* \"#utility.yul\":9586:9589   */\n      dup3\n        /* \"#utility.yul\":9497:9590   */\n      tag_194\n      jump\t// in\n    tag_275:\n        /* \"#utility.yul\":9615:9617   */\n      0x20\n        /* \"#utility.yul\":9610:9613   */\n      dup3\n        /* \"#utility.yul\":9606:9618   */\n      add\n        /* \"#utility.yul\":9599:9618   */\n      swap1\n      pop\n        /* \"#utility.yul\":9258:9624   */\n      swap2\n      swap1\n      pop\n      jump\t// out\n        /* \"#utility.yul\":9630:10049   */\n    tag_92:\n        /* \"#utility.yul\":9796:9800   */\n      0x00\n        /* \"#utility.yul\":9834:9836   */\n      0x20\n        /* \"#utility.yul\":9823:9832   */\n      dup3\n        /* \"#utility.yul\":9819:9837   */\n      add\n        /* \"#utility.yul\":9811:9837   */\n      swap1\n      pop\n        /* \"#utility.yul\":9883:9892   */\n      dup2\n        /* \"#utility.yul\":9877:9881   */\n      dup2\n        /* \"#utility.yul\":9873:9893   */\n      sub\n        /* \"#utility.yul\":9869:9870   */\n      0x00\n        /* \"#utility.yul\":9858:9867   */\n      dup4\n        /* \"#utility.yul\":9854:9871   */\n      add\n        /* \"#utility.yul\":9847:9894   */\n      mstore\n        /* \"#utility.yul\":9911:10042   */\n      tag_277\n        /* \"#utility.yul\":10037:10041   */\n      dup2\n        /* \"#utility.yul\":9911:10042   */\n      tag_195\n      jump\t// in\n    tag_277:\n        /* \"#utility.yul\":9903:10042   */\n      swap1\n      pop\n        /* \"#utility.yul\":9630:10049   */\n      swap2\n      swap1\n      pop\n      jump\t// out\n        /* \"#utility.yul\":10055:10465   */\n    tag_103:\n        /* \"#utility.yul\":10095:10102   */\n      0x00\n        /* \"#utility.yul\":10118:10138   */\n      tag_279\n        /* \"#utility.yul\":10136:10137   */\n      dup3\n        /* \"#utility.yul\":10118:10138   */\n      tag_170\n      jump\t// in\n    tag_279:\n        /* \"#utility.yul\":10113:10138   */\n      swap2\n      pop\n        /* \"#utility.yul\":10152:10172   */\n      tag_280\n        /* \"#utility.yul\":10170:10171   */\n      dup4\n        /* \"#utility.yul\":10152:10172   */\n      tag_170\n      jump\t// in\n    tag_280:\n        /* \"#utility.yul\":10147:10172   */\n      swap3\n      pop\n        /* \"#utility.yul\":10207:10208   */\n      dup3\n        /* \"#utility.yul\":10204:10205   */\n      dup3\n        /* \"#utility.yul\":10200:10209   */\n      mul\n        /* \"#utility.yul\":10229:10259   */\n      tag_281\n        /* \"#utility.yul\":10247:10258   */\n      dup2\n        /* \"#utility.yul\":10229:10259   */\n      tag_170\n      jump\t// in\n    tag_281:\n        /* \"#utility.yul\":10218:10259   */\n      swap2\n      pop\n        /* \"#utility.yul\":10408:10409   */\n      dup3\n        /* \"#utility.yul\":10399:10406   */\n      dup3\n        /* \"#utility.yul\":10395:10410   */\n      div\n        /* \"#utility.yul\":10392:10393   */\n      dup5\n        /* \"#utility.yul\":10389:10411   */\n      eq\n        /* \"#utility.yul\":10369:10370   */\n      dup4\n        /* \"#utility.yul\":10362:10371   */\n      iszero\n        /* \"#utility.yul\":10342:10425   */\n      or\n        /* \"#utility.yul\":10319:10458   */\n      tag_282\n      jumpi\n        /* \"#utility.yul\":10438:10456   */\n      tag_283\n      tag_193\n      jump\t// in\n    tag_283:\n        /* \"#utility.yul\":10319:10458   */\n    tag_282:\n        /* \"#utility.yul\":10103:10465   */\n      pop\n        /* \"#utility.yul\":10055:10465   */\n      swap3\n      swap2\n      pop\n      pop\n      jump\t// out\n        /* \"#utility.yul\":10471:10651   */\n    tag_196:\n        /* \"#utility.yul\":10519:10596   */\n      0x4e487b7100000000000000000000000000000000000000000000000000000000\n        /* \"#utility.yul\":10516:10517   */\n      0x00\n        /* \"#utility.yul\":10509:10597   */\n      mstore\n        /* \"#utility.yul\":10616:10620   */\n      0x12\n        /* \"#utility.yul\":10613:10614   */\n      0x04\n        /* \"#utility.yul\":10606:10621   */\n      mstore\n        /* \"#utility.yul\":10640:10644   */\n      0x24\n        /* \"#utility.yul\":10637:10638   */\n      0x00\n        /* \"#utility.yul\":10630:10645   */\n      revert\n        /* \"#utility.yul\":10657:10842   */\n    tag_105:\n        /* \"#utility.yul\":10697:10698   */\n      0x00\n        /* \"#utility.yul\":10714:10734   */\n      tag_286\n        /* \"#utility.yul\":10732:10733   */\n      dup3\n        /* \"#utility.yul\":10714:10734   */\n      tag_170\n      jump\t// in\n    tag_286:\n        /* \"#utility.yul\":10709:10734   */\n      swap2\n      pop\n        /* \"#utility.yul\":10748:10768   */\n      tag_287\n        /* \"#utility.yul\":10766:10767   */\n      dup4\n        /* \"#utility.yul\":10748:10768   */\n      tag_170\n      jump\t// in\n    tag_287:\n        /* \"#utility.yul\":10743:10768   */\n      swap3\n      pop\n        /* \"#utility.yul\":10787:10788   */\n      dup3\n        /* \"#utility.yul\":10777:10812   */\n      tag_288\n      jumpi\n        /* \"#utility.yul\":10792:10810   */\n      tag_289\n      tag_196\n      jump\t// in\n    tag_289:\n        /* \"#utility.yul\":10777:10812   */\n    tag_288:\n        /* \"#utility.yul\":10834:10835   */\n      dup3\n        /* \"#utility.yul\":10831:10832   */\n      dup3\n        /* \"#utility.yul\":10827:10836   */\n      div\n        /* \"#utility.yul\":10822:10836   */\n      swap1\n      pop\n        /* \"#utility.yul\":10657:10842   */\n      swap3\n      swap2\n      pop\n      pop\n      jump\t// out\n        /* \"#utility.yul\":10848:11039   */\n    tag_107:\n        /* \"#utility.yul\":10888:10891   */\n      0x00\n        /* \"#utility.yul\":10907:10927   */\n      tag_291\n        /* \"#utility.yul\":10925:10926   */\n      dup3\n        /* \"#utility.yul\":10907:10927   */\n      tag_170\n      jump\t// in\n    tag_291:\n        /* \"#utility.yul\":10902:10927   */\n      swap2\n      pop\n        /* \"#utility.yul\":10941:10961   */\n      tag_292\n        /* \"#utility.yul\":10959:10960   */\n      dup4\n        /* \"#utility.yul\":10941:10961   */\n      tag_170\n      jump\t// in\n    tag_292:\n        /* \"#utility.yul\":10936:10961   */\n      swap3\n      pop\n        /* \"#utility.yul\":10984:10985   */\n      dup3\n        /* \"#utility.yul\":10981:10982   */\n      dup3\n        /* \"#utility.yul\":10977:10986   */\n      add\n        /* \"#utility.yul\":10970:10986   */\n      swap1\n      pop\n        /* \"#utility.yul\":11005:11008   */\n      dup1\n        /* \"#utility.yul\":11002:11003   */\n      dup3\n        /* \"#utility.yul\":10999:11009   */\n      gt\n        /* \"#utility.yul\":10996:11032   */\n      iszero\n      tag_293\n      jumpi\n        /* \"#utility.yul\":11012:11030   */\n      tag_294\n      tag_193\n      jump\t// in\n    tag_294:\n        /* \"#utility.yul\":10996:11032   */\n    tag_293:\n        /* \"#utility.yul\":10848:11039   */\n      swap3\n      swap2\n      pop\n      pop\n      jump\t// out\n        /* \"#utility.yul\":11045:11377   */\n    tag_128:\n        /* \"#utility.yul\":11166:11170   */\n      0x00\n        /* \"#utility.yul\":11204:11206   */\n      0x40\n        /* \"#utility.yul\":11193:11202   */\n      dup3\n        /* \"#utility.yul\":11189:11207   */\n      add\n        /* \"#utility.yul\":11181:11207   */\n      swap1\n      pop\n        /* \"#utility.yul\":11217:11288   */\n      tag_296\n        /* \"#utility.yul\":11285:11286   */\n      0x00\n        /* \"#utility.yul\":11274:11283   */\n      dup4\n        /* \"#utility.yul\":11270:11287   */\n      add\n        /* \"#utility.yul\":11261:11267   */\n      dup6\n        /* \"#utility.yul\":11217:11288   */\n      tag_171\n      jump\t// in\n    tag_296:\n        /* \"#utility.yul\":11298:11370   */\n      tag_297\n        /* \"#utility.yul\":11366:11368   */\n      0x20\n        /* \"#utility.yul\":11355:11364   */\n      dup4\n        /* \"#utility.yul\":11351:11369   */\n      add\n        /* \"#utility.yul\":11342:11348   */\n      dup5\n        /* \"#utility.yul\":11298:11370   */\n      tag_171\n      jump\t// in\n    tag_297:\n        /* \"#utility.yul\":11045:11377   */\n      swap4\n      swap3\n      pop\n      pop\n      pop\n      jump\t// out\n        /* \"#utility.yul\":11383:11545   */\n    tag_197:\n        /* \"#utility.yul\":11523:11537   */\n      0x6f66666572206973206c6f770000000000000000000000000000000000000000\n        /* \"#utility.yul\":11519:11520   */\n      0x00\n        /* \"#utility.yul\":11511:11517   */\n      dup3\n        /* \"#utility.yul\":11507:11521   */\n      add\n        /* \"#utility.yul\":11500:11538   */\n      mstore\n        /* \"#utility.yul\":11383:11545   */\n      pop\n      jump\t// out\n        /* \"#utility.yul\":11551:11917   */\n    tag_198:\n        /* \"#utility.yul\":11693:11696   */\n      0x00\n        /* \"#utility.yul\":11714:11781   */\n      tag_300\n        /* \"#utility.yul\":11778:11780   */\n      0x0c\n        /* \"#utility.yul\":11773:11776   */\n      dup4\n        /* \"#utility.yul\":11714:11781   */\n      tag_184\n      jump\t// in\n    tag_300:\n        /* \"#utility.yul\":11707:11781   */\n      swap2\n      pop\n        /* \"#utility.yul\":11790:11883   */\n      tag_301\n        /* \"#utility.yul\":11879:11882   */\n      dup3\n        /* \"#utility.yul\":11790:11883   */\n      tag_197\n      jump\t// in\n    tag_301:\n        /* \"#utility.yul\":11908:11910   */\n      0x20\n        /* \"#utility.yul\":11903:11906   */\n      dup3\n        /* \"#utility.yul\":11899:11911   */\n      add\n        /* \"#utility.yul\":11892:11911   */\n      swap1\n      pop\n        /* \"#utility.yul\":11551:11917   */\n      swap2\n      swap1\n      pop\n      jump\t// out\n        /* \"#utility.yul\":11923:12342   */\n    tag_134:\n        /* \"#utility.yul\":12089:12093   */\n      0x00\n        /* \"#utility.yul\":12127:12129   */\n      0x20\n        /* \"#utility.yul\":12116:12125   */\n      dup3\n        /* \"#utility.yul\":12112:12130   */\n      add\n        /* \"#utility.yul\":12104:12130   */\n      swap1\n      pop\n        /* \"#utility.yul\":12176:12185   */\n      dup2\n        /* \"#utility.yul\":12170:12174   */\n      dup2\n        /* \"#utility.yul\":12166:12186   */\n      sub\n        /* \"#utility.yul\":12162:12163   */\n      0x00\n        /* \"#utility.yul\":12151:12160   */\n      dup4\n        /* \"#utility.yul\":12147:12164   */\n      add\n        /* \"#utility.yul\":12140:12187   */\n      mstore\n        /* \"#utility.yul\":12204:12335   */\n      tag_303\n        /* \"#utility.yul\":12330:12334   */\n      dup2\n        /* \"#utility.yul\":12204:12335   */\n      tag_198\n      jump\t// in\n    tag_303:\n        /* \"#utility.yul\":12196:12335   */\n      swap1\n      pop\n        /* \"#utility.yul\":11923:12342   */\n      swap2\n      swap1\n      pop\n      jump\t// out\n        /* \"#utility.yul\":12348:12524   */\n    tag_199:\n        /* \"#utility.yul\":12488:12516   */\n      0x7468652061756374696f6e206973206e6f7420656e61626c6564000000000000\n        /* \"#utility.yul\":12484:12485   */\n      0x00\n        /* \"#utility.yul\":12476:12482   */\n      dup3\n        /* \"#utility.yul\":12472:12486   */\n      add\n        /* \"#utility.yul\":12465:12517   */\n      mstore\n        /* \"#utility.yul\":12348:12524   */\n      pop\n      jump\t// out\n        /* \"#utility.yul\":12530:12896   */\n    tag_200:\n        /* \"#utility.yul\":12672:12675   */\n      0x00\n        /* \"#utility.yul\":12693:12760   */\n      tag_306\n        /* \"#utility.yul\":12757:12759   */\n      0x1a\n        /* \"#utility.yul\":12752:12755   */\n      dup4\n        /* \"#utility.yul\":12693:12760   */\n      tag_184\n      jump\t// in\n    tag_306:\n        /* \"#utility.yul\":12686:12760   */\n      swap2\n      pop\n        /* \"#utility.yul\":12769:12862   */\n      tag_307\n        /* \"#utility.yul\":12858:12861   */\n      dup3\n        /* \"#utility.yul\":12769:12862   */\n      tag_199\n      jump\t// in\n    tag_307:\n        /* \"#utility.yul\":12887:12889   */\n      0x20\n        /* \"#utility.yul\":12882:12885   */\n      dup3\n        /* \"#utility.yul\":12878:12890   */\n      add\n        /* \"#utility.yul\":12871:12890   */\n      swap1\n      pop\n        /* \"#utility.yul\":12530:12896   */\n      swap2\n      swap1\n      pop\n      jump\t// out\n        /* \"#utility.yul\":12902:13321   */\n    tag_141:\n        /* \"#utility.yul\":13068:13072   */\n      0x00\n        /* \"#utility.yul\":13106:13108   */\n      0x20\n        /* \"#utility.yul\":13095:13104   */\n      dup3\n        /* \"#utility.yul\":13091:13109   */\n      add\n        /* \"#utility.yul\":13083:13109   */\n      swap1\n      pop\n        /* \"#utility.yul\":13155:13164   */\n      dup2\n        /* \"#utility.yul\":13149:13153   */\n      dup2\n        /* \"#utility.yul\":13145:13165   */\n      sub\n        /* \"#utility.yul\":13141:13142   */\n      0x00\n        /* \"#utility.yul\":13130:13139   */\n      dup4\n        /* \"#utility.yul\":13126:13143   */\n      add\n        /* \"#utility.yul\":13119:13166   */\n      mstore\n        /* \"#utility.yul\":13183:13314   */\n      tag_309\n        /* \"#utility.yul\":13309:13313   */\n      dup2\n        /* \"#utility.yul\":13183:13314   */\n      tag_200\n      jump\t// in\n    tag_309:\n        /* \"#utility.yul\":13175:13314   */\n      swap1\n      pop\n        /* \"#utility.yul\":12902:13321   */\n      swap2\n      swap1\n      pop\n      jump\t// out\n\n    auxdata: 0xa2646970667358221220e8b2341a57170d88c1c6c4b7c371340d2eeffa5391a2e35137ec94fbfafe0e6764736f6c634300081e0033\n}\n",
				"bytecode": {
					"linkReferences": {},
					"object": "6080604052348015600e575f5ffd5b503360075f6101000a81548173ffffffffffffffffffffffffffffffffffffffff021916908373ffffffffffffffffffffffffffffffffffffffff160217905550633b9aca0060018190555062093a80426067919060b7565b6003819055506005600281905550600a60048190555060e3565b5f819050919050565b7f4e487b71000000000000000000000000000000000000000000000000000000005f52601160045260245ffd5b5f60bf826081565b915060c8836081565b925082820190508082111560dd5760dc608a565b5b92915050565b611635806100f05f395ff3fe60806040526004361061009b575f3560e01c80635b8a4cd1116100635780635b8a4cd114610149578063680aa85b14610173578063689567d51461019d57806377c468c4146101a7578063d6d36b92146101bd578063efb0a849146101e85761009b565b8063028913471461009f5780632987479b146100c95780633a2da003146100df5780633ee992ee146101095780635021c7c314610133575b5f5ffd5b3480156100aa575f5ffd5b506100b3610212565b6040516100c09190610fed565b60405180910390f35b3480156100d4575f5ffd5b506100dd610218565b005b3480156100ea575f5ffd5b506100f3610334565b6040516101009190610fed565b60405180910390f35b348015610114575f5ffd5b5061011d61033a565b60405161012a919061113c565b60405180910390f35b34801561013e575f5ffd5b506101476103fe565b005b348015610154575f5ffd5b5061015d610706565b60405161016a9190610fed565b60405180910390f35b34801561017e575f5ffd5b5061018761070c565b6040516101949190610fed565b60405180910390f35b6101a5610712565b005b3480156101b2575f5ffd5b506101bb610b96565b005b3480156101c8575f5ffd5b506101d1610fa0565b6040516101df92919061116b565b60405180910390f35b3480156101f3575f5ffd5b506101fc610fcf565b6040516102099190610fed565b60405180910390f35b60015481565b60075f9054906101000a900473ffffffffffffffffffffffffffffffffffffffff1673ffffffffffffffffffffffffffffffffffffffff163373ffffffffffffffffffffffffffffffffffffffff16146102a7576040517f08c379a000000000000000000000000000000000000000000000000000000000815260040161029e906111ec565b60405180910390fd5b60015f5f6101000a81548160ff021916908360ff16021790555060065f9054906101000a900473ffffffffffffffffffffffffffffffffffffffff1673ffffffffffffffffffffffffffffffffffffffff167f4595e0e99913fee39d1c2fbbbc388d20ca46779d6170d1bb13efad202115e1ea60055460405161032a9190610fed565b60405180910390a2565b60055481565b60606008805480602002602001604051908101604052809291908181526020015f905b828210156103f5578382905f5260205f2090600302016040518060600160405290815f82015f9054906101000a900473ffffffffffffffffffffffffffffffffffffffff1673ffffffffffffffffffffffffffffffffffffffff1673ffffffffffffffffffffffffffffffffffffffff168152602001600182015481526020016002820154815250508152602001906001019061035d565b50505050905090565b5f5f5f9054906101000a900460ff1660ff1614610450576040517f08c379a000000000000000000000000000000000000000000000000000000000815260040161044790611254565b60405180910390fd5b600354421115610495576040517f08c379a000000000000000000000000000000000000000000000000000000000815260040161048c906112bc565b60405180910390fd5b5f60088054905090505f5f5f5f3390505f93505b8484101561053b578073ffffffffffffffffffffffffffffffffffffffff16600885815481106104dc576104db6112da565b5b905f5260205f2090600302015f015f9054906101000a900473ffffffffffffffffffffffffffffffffffffffff1673ffffffffffffffffffffffffffffffffffffffff160361052e576001915061053b565b83806001019450506104a9565b60018260ff1614610581576040517f08c379a000000000000000000000000000000000000000000000000000000000815260040161057890611351565b60405180910390fd5b60088481548110610595576105946112da565b5b905f5260205f20906003020160010154600a5f8373ffffffffffffffffffffffffffffffffffffffff1673ffffffffffffffffffffffffffffffffffffffff1681526020019081526020015f20546105ed919061139c565b92505f8311610631576040517f08c379a000000000000000000000000000000000000000000000000000000000815260040161062890611419565b60405180910390fd5b82600a5f8373ffffffffffffffffffffffffffffffffffffffff1673ffffffffffffffffffffffffffffffffffffffff1681526020019081526020015f205461067a919061139c565b600a5f8373ffffffffffffffffffffffffffffffffffffffff1673ffffffffffffffffffffffffffffffffffffffff1681526020019081526020015f20819055508073ffffffffffffffffffffffffffffffffffffffff166108fc8490811502906040515f60405180830381858888f193505050501580156106fe573d5f5f3e3d5ffd5b505050505050565b60035481565b60045481565b5f5f5f9054906101000a900460ff1660ff1614610764576040517f08c379a000000000000000000000000000000000000000000000000000000000815260040161075b90611254565b60405180910390fd5b6003544211156107a9576040517f08c379a00000000000000000000000000000000000000000000000000000000081526004016107a0906112bc565b60405180910390fd5b5f3490505f60646002546005546107c09190611437565b6107ca91906114a5565b6005546107d791906114d5565b905080821115610b57575f3390508060065f6101000a81548173ffffffffffffffffffffffffffffffffffffffff021916908373ffffffffffffffffffffffffffffffffffffffff160217905550826005819055505f60088054905090505f5f5f90505b8281101561091d5760088181548110610857576108566112da565b5b905f5260205f2090600302015f015f9054906101000a900473ffffffffffffffffffffffffffffffffffffffff1673ffffffffffffffffffffffffffffffffffffffff168473ffffffffffffffffffffffffffffffffffffffff16036109105785600882815481106108cc576108cb6112da565b5b905f5260205f2090600302016001018190555042600882815481106108f4576108f36112da565b5b905f5260205f209060030201600201819055506001915061091d565b808060010191505061083b565b505f8160ff16036109dc57600860405180606001604052808573ffffffffffffffffffffffffffffffffffffffff16815260200187815260200142815250908060018154018082558091505060019003905f5260205f2090600302015f909190919091505f820151815f015f6101000a81548173ffffffffffffffffffffffffffffffffffffffff021916908373ffffffffffffffffffffffffffffffffffffffff160217905550602082015181600101556040820151816002015550505b5f600a5f8573ffffffffffffffffffffffffffffffffffffffff1673ffffffffffffffffffffffffffffffffffffffff1681526020019081526020015f205403610a8157600983908060018154018082558091505060019003905f5260205f20015f9091909190916101000a81548173ffffffffffffffffffffffffffffffffffffffff021916908373ffffffffffffffffffffffffffffffffffffffff1602179055505b84600a5f8573ffffffffffffffffffffffffffffffffffffffff1673ffffffffffffffffffffffffffffffffffffffff1681526020019081526020015f205f828254610acd91906114d5565b925050819055508273ffffffffffffffffffffffffffffffffffffffff167f551de133c3c54f44eeb62d367128007225756725602fc40f3f2fb567e7fdf3148642604051610b1c929190611508565b60405180910390a2600454600354610b34919061139c565b4210610b4f5760045442610b4891906114d5565b6003819055505b505050610b92565b6040517f08c379a0000000000000000000000000000000000000000000000000000000008152600401610b8990611579565b60405180910390fd5b5050565b60075f9054906101000a900473ffffffffffffffffffffffffffffffffffffffff1673ffffffffffffffffffffffffffffffffffffffff163373ffffffffffffffffffffffffffffffffffffffff1614610c25576040517f08c379a0000000000000000000000000000000000000000000000000000000008152600401610c1c906111ec565b60405180910390fd5b60015f5f9054906101000a900460ff1660ff1614610c78576040517f08c379a0000000000000000000000000000000000000000000000000000000008152600401610c6f906115e1565b60405180910390fd5b5f5f60055490505f60098054905090505f5f90505b81811015610f355782600a5f60098481548110610cad57610cac6112da565b5b905f5260205f20015f9054906101000a900473ffffffffffffffffffffffffffffffffffffffff1673ffffffffffffffffffffffffffffffffffffffff1673ffffffffffffffffffffffffffffffffffffffff1681526020019081526020015f20541015610f285760646002600a5f60098581548110610d3057610d2f6112da565b5b905f5260205f20015f9054906101000a900473ffffffffffffffffffffffffffffffffffffffff1673ffffffffffffffffffffffffffffffffffffffff1673ffffffffffffffffffffffffffffffffffffffff1681526020019081526020015f2054610d9c9190611437565b610da691906114a5565b600a5f60098481548110610dbd57610dbc6112da565b5b905f5260205f20015f9054906101000a900473ffffffffffffffffffffffffffffffffffffffff1673ffffffffffffffffffffffffffffffffffffffff1673ffffffffffffffffffffffffffffffffffffffff1681526020019081526020015f2054610e29919061139c565b93505f600a5f60098481548110610e4357610e426112da565b5b905f5260205f20015f9054906101000a900473ffffffffffffffffffffffffffffffffffffffff1673ffffffffffffffffffffffffffffffffffffffff1673ffffffffffffffffffffffffffffffffffffffff1681526020019081526020015f208190555060098181548110610ebc57610ebb6112da565b5b905f5260205f20015f9054906101000a900473ffffffffffffffffffffffffffffffffffffffff1673ffffffffffffffffffffffffffffffffffffffff166108fc8590811502906040515f60405180830381858888f19350505050158015610f26573d5f5f3e3d5ffd5b505b8080600101915050610c8d565b5060075f9054906101000a900473ffffffffffffffffffffffffffffffffffffffff1673ffffffffffffffffffffffffffffffffffffffff166108fc4790811502906040515f60405180830381858888f19350505050158015610f9a573d5f5f3e3d5ffd5b50505050565b5f5f60065f9054906101000a900473ffffffffffffffffffffffffffffffffffffffff16600554915091509091565b60025481565b5f819050919050565b610fe781610fd5565b82525050565b5f6020820190506110005f830184610fde565b92915050565b5f81519050919050565b5f82825260208201905092915050565b5f819050602082019050919050565b5f73ffffffffffffffffffffffffffffffffffffffff82169050919050565b5f6110588261102f565b9050919050565b6110688161104e565b82525050565b61107781610fd5565b82525050565b606082015f8201516110915f85018261105f565b5060208201516110a4602085018261106e565b5060408201516110b7604085018261106e565b50505050565b5f6110c8838361107d565b60608301905092915050565b5f602082019050919050565b5f6110ea82611006565b6110f48185611010565b93506110ff83611020565b805f5b8381101561112f57815161111688826110bd565b9750611121836110d4565b925050600181019050611102565b5085935050505092915050565b5f6020820190508181035f83015261115481846110e0565b905092915050565b6111658161104e565b82525050565b5f60408201905061117e5f83018561115c565b61118b6020830184610fde565b9392505050565b5f82825260208201905092915050565b7f4f6e6c79204f776e657220656e61626c656400000000000000000000000000005f82015250565b5f6111d6601283611192565b91506111e1826111a2565b602082019050919050565b5f6020820190508181035f830152611203816111ca565b9050919050565b7f5468652061756374696f6e206973206f766572000000000000000000000000005f82015250565b5f61123e601383611192565b91506112498261120a565b602082019050919050565b5f6020820190508181035f83015261126b81611232565b9050919050565b7f5468652061756374696f6e2068617320657870697265640000000000000000005f82015250565b5f6112a6601783611192565b91506112b182611272565b602082019050919050565b5f6020820190508181035f8301526112d38161129a565b9050919050565b7f4e487b71000000000000000000000000000000000000000000000000000000005f52603260045260245ffd5b7f4e6f2065732076616c69646f206f6666657274616e74650000000000000000005f82015250565b5f61133b601783611192565b915061134682611307565b602082019050919050565b5f6020820190508181035f8301526113688161132f565b9050919050565b7f4e487b71000000000000000000000000000000000000000000000000000000005f52601160045260245ffd5b5f6113a682610fd5565b91506113b183610fd5565b92508282039050818111156113c9576113c861136f565b5b92915050565b7f4e6f2068617920706172612072657469726172000000000000000000000000005f82015250565b5f611403601383611192565b915061140e826113cf565b602082019050919050565b5f6020820190508181035f830152611430816113f7565b9050919050565b5f61144182610fd5565b915061144c83610fd5565b925082820261145a81610fd5565b915082820484148315176114715761147061136f565b5b5092915050565b7f4e487b71000000000000000000000000000000000000000000000000000000005f52601260045260245ffd5b5f6114af82610fd5565b91506114ba83610fd5565b9250826114ca576114c9611478565b5b828204905092915050565b5f6114df82610fd5565b91506114ea83610fd5565b92508282019050808211156115025761150161136f565b5b92915050565b5f60408201905061151b5f830185610fde565b6115286020830184610fde565b9392505050565b7f6f66666572206973206c6f7700000000000000000000000000000000000000005f82015250565b5f611563600c83611192565b915061156e8261152f565b602082019050919050565b5f6020820190508181035f83015261159081611557565b9050919050565b7f7468652061756374696f6e206973206e6f7420656e61626c65640000000000005f82015250565b5f6115cb601a83611192565b91506115d682611597565b602082019050919050565b5f6020820190508181035f8301526115f8816115bf565b905091905056fea2646970667358221220e8b2341a57170d88c1c6c4b7c371340d2eeffa5391a2e35137ec94fbfafe0e6764736f6c634300081e0033",
					"opcodes": "PUSH1 0x80 PUSH1 0x40 MSTORE CALLVALUE DUP1 ISZERO PUSH1 0xE JUMPI PUSH0 PUSH0 REVERT JUMPDEST POP CALLER PUSH1 0x7 PUSH0 PUSH2 0x100 EXP DUP2 SLOAD DUP2 PUSH20 0xFFFFFFFFFFFFFFFFFFFFFFFFFFFFFFFFFFFFFFFF MUL NOT AND SWAP1 DUP4 PUSH20 0xFFFFFFFFFFFFFFFFFFFFFFFFFFFFFFFFFFFFFFFF AND MUL OR SWAP1 SSTORE POP PUSH4 0x3B9ACA00 PUSH1 0x1 DUP2 SWAP1 SSTORE POP PUSH3 0x93A80 TIMESTAMP PUSH1 0x67 SWAP2 SWAP1 PUSH1 0xB7 JUMP JUMPDEST PUSH1 0x3 DUP2 SWAP1 SSTORE POP PUSH1 0x5 PUSH1 0x2 DUP2 SWAP1 SSTORE POP PUSH1 0xA PUSH1 0x4 DUP2 SWAP1 SSTORE POP PUSH1 0xE3 JUMP JUMPDEST PUSH0 DUP2 SWAP1 POP SWAP2 SWAP1 POP JUMP JUMPDEST PUSH32 0x4E487B7100000000000000000000000000000000000000000000000000000000 PUSH0 MSTORE PUSH1 0x11 PUSH1 0x4 MSTORE PUSH1 0x24 PUSH0 REVERT JUMPDEST PUSH0 PUSH1 0xBF DUP3 PUSH1 0x81 JUMP JUMPDEST SWAP2 POP PUSH1 0xC8 DUP4 PUSH1 0x81 JUMP JUMPDEST SWAP3 POP DUP3 DUP3 ADD SWAP1 POP DUP1 DUP3 GT ISZERO PUSH1 0xDD JUMPI PUSH1 0xDC PUSH1 0x8A JUMP JUMPDEST JUMPDEST SWAP3 SWAP2 POP POP JUMP JUMPDEST PUSH2 0x1635 DUP1 PUSH2 0xF0 PUSH0 CODECOPY PUSH0 RETURN INVALID PUSH1 0x80 PUSH1 0x40 MSTORE PUSH1 0x4 CALLDATASIZE LT PUSH2 0x9B JUMPI PUSH0 CALLDATALOAD PUSH1 0xE0 SHR DUP1 PUSH4 0x5B8A4CD1 GT PUSH2 0x63 JUMPI DUP1 PUSH4 0x5B8A4CD1 EQ PUSH2 0x149 JUMPI DUP1 PUSH4 0x680AA85B EQ PUSH2 0x173 JUMPI DUP1 PUSH4 0x689567D5 EQ PUSH2 0x19D JUMPI DUP1 PUSH4 0x77C468C4 EQ PUSH2 0x1A7 JUMPI DUP1 PUSH4 0xD6D36B92 EQ PUSH2 0x1BD JUMPI DUP1 PUSH4 0xEFB0A849 EQ PUSH2 0x1E8 JUMPI PUSH2 0x9B JUMP JUMPDEST DUP1 PUSH4 0x2891347 EQ PUSH2 0x9F JUMPI DUP1 PUSH4 0x2987479B EQ PUSH2 0xC9 JUMPI DUP1 PUSH4 0x3A2DA003 EQ PUSH2 0xDF JUMPI DUP1 PUSH4 0x3EE992EE EQ PUSH2 0x109 JUMPI DUP1 PUSH4 0x5021C7C3 EQ PUSH2 0x133 JUMPI JUMPDEST PUSH0 PUSH0 REVERT JUMPDEST CALLVALUE DUP1 ISZERO PUSH2 0xAA JUMPI PUSH0 PUSH0 REVERT JUMPDEST POP PUSH2 0xB3 PUSH2 0x212 JUMP JUMPDEST PUSH1 0x40 MLOAD PUSH2 0xC0 SWAP2 SWAP1 PUSH2 0xFED JUMP JUMPDEST PUSH1 0x40 MLOAD DUP1 SWAP2 SUB SWAP1 RETURN JUMPDEST CALLVALUE DUP1 ISZERO PUSH2 0xD4 JUMPI PUSH0 PUSH0 REVERT JUMPDEST POP PUSH2 0xDD PUSH2 0x218 JUMP JUMPDEST STOP JUMPDEST CALLVALUE DUP1 ISZERO PUSH2 0xEA JUMPI PUSH0 PUSH0 REVERT JUMPDEST POP PUSH2 0xF3 PUSH2 0x334 JUMP JUMPDEST PUSH1 0x40 MLOAD PUSH2 0x100 SWAP2 SWAP1 PUSH2 0xFED JUMP JUMPDEST PUSH1 0x40 MLOAD DUP1 SWAP2 SUB SWAP1 RETURN JUMPDEST CALLVALUE DUP1 ISZERO PUSH2 0x114 JUMPI PUSH0 PUSH0 REVERT JUMPDEST POP PUSH2 0x11D PUSH2 0x33A JUMP JUMPDEST PUSH1 0x40 MLOAD PUSH2 0x12A SWAP2 SWAP1 PUSH2 0x113C JUMP JUMPDEST PUSH1 0x40 MLOAD DUP1 SWAP2 SUB SWAP1 RETURN JUMPDEST CALLVALUE DUP1 ISZERO PUSH2 0x13E JUMPI PUSH0 PUSH0 REVERT JUMPDEST POP PUSH2 0x147 PUSH2 0x3FE JUMP JUMPDEST STOP JUMPDEST CALLVALUE DUP1 ISZERO PUSH2 0x154 JUMPI PUSH0 PUSH0 REVERT JUMPDEST POP PUSH2 0x15D PUSH2 0x706 JUMP JUMPDEST PUSH1 0x40 MLOAD PUSH2 0x16A SWAP2 SWAP1 PUSH2 0xFED JUMP JUMPDEST PUSH1 0x40 MLOAD DUP1 SWAP2 SUB SWAP1 RETURN JUMPDEST CALLVALUE DUP1 ISZERO PUSH2 0x17E JUMPI PUSH0 PUSH0 REVERT JUMPDEST POP PUSH2 0x187 PUSH2 0x70C JUMP JUMPDEST PUSH1 0x40 MLOAD PUSH2 0x194 SWAP2 SWAP1 PUSH2 0xFED JUMP JUMPDEST PUSH1 0x40 MLOAD DUP1 SWAP2 SUB SWAP1 RETURN JUMPDEST PUSH2 0x1A5 PUSH2 0x712 JUMP JUMPDEST STOP JUMPDEST CALLVALUE DUP1 ISZERO PUSH2 0x1B2 JUMPI PUSH0 PUSH0 REVERT JUMPDEST POP PUSH2 0x1BB PUSH2 0xB96 JUMP JUMPDEST STOP JUMPDEST CALLVALUE DUP1 ISZERO PUSH2 0x1C8 JUMPI PUSH0 PUSH0 REVERT JUMPDEST POP PUSH2 0x1D1 PUSH2 0xFA0 JUMP JUMPDEST PUSH1 0x40 MLOAD PUSH2 0x1DF SWAP3 SWAP2 SWAP1 PUSH2 0x116B JUMP JUMPDEST PUSH1 0x40 MLOAD DUP1 SWAP2 SUB SWAP1 RETURN JUMPDEST CALLVALUE DUP1 ISZERO PUSH2 0x1F3 JUMPI PUSH0 PUSH0 REVERT JUMPDEST POP PUSH2 0x1FC PUSH2 0xFCF JUMP JUMPDEST PUSH1 0x40 MLOAD PUSH2 0x209 SWAP2 SWAP1 PUSH2 0xFED JUMP JUMPDEST PUSH1 0x40 MLOAD DUP1 SWAP2 SUB SWAP1 RETURN JUMPDEST PUSH1 0x1 SLOAD DUP2 JUMP JUMPDEST PUSH1 0x7 PUSH0 SWAP1 SLOAD SWAP1 PUSH2 0x100 EXP SWAP1 DIV PUSH20 0xFFFFFFFFFFFFFFFFFFFFFFFFFFFFFFFFFFFFFFFF AND PUSH20 0xFFFFFFFFFFFFFFFFFFFFFFFFFFFFFFFFFFFFFFFF AND CALLER PUSH20 0xFFFFFFFFFFFFFFFFFFFFFFFFFFFFFFFFFFFFFFFF AND EQ PUSH2 0x2A7 JUMPI PUSH1 0x40 MLOAD PUSH32 0x8C379A000000000000000000000000000000000000000000000000000000000 DUP2 MSTORE PUSH1 0x4 ADD PUSH2 0x29E SWAP1 PUSH2 0x11EC JUMP JUMPDEST PUSH1 0x40 MLOAD DUP1 SWAP2 SUB SWAP1 REVERT JUMPDEST PUSH1 0x1 PUSH0 PUSH0 PUSH2 0x100 EXP DUP2 SLOAD DUP2 PUSH1 0xFF MUL NOT AND SWAP1 DUP4 PUSH1 0xFF AND MUL OR SWAP1 SSTORE POP PUSH1 0x6 PUSH0 SWAP1 SLOAD SWAP1 PUSH2 0x100 EXP SWAP1 DIV PUSH20 0xFFFFFFFFFFFFFFFFFFFFFFFFFFFFFFFFFFFFFFFF AND PUSH20 0xFFFFFFFFFFFFFFFFFFFFFFFFFFFFFFFFFFFFFFFF AND PUSH32 0x4595E0E99913FEE39D1C2FBBBC388D20CA46779D6170D1BB13EFAD202115E1EA PUSH1 0x5 SLOAD PUSH1 0x40 MLOAD PUSH2 0x32A SWAP2 SWAP1 PUSH2 0xFED JUMP JUMPDEST PUSH1 0x40 MLOAD DUP1 SWAP2 SUB SWAP1 LOG2 JUMP JUMPDEST PUSH1 0x5 SLOAD DUP2 JUMP JUMPDEST PUSH1 0x60 PUSH1 0x8 DUP1 SLOAD DUP1 PUSH1 0x20 MUL PUSH1 0x20 ADD PUSH1 0x40 MLOAD SWAP1 DUP2 ADD PUSH1 0x40 MSTORE DUP1 SWAP3 SWAP2 SWAP1 DUP2 DUP2 MSTORE PUSH1 0x20 ADD PUSH0 SWAP1 JUMPDEST DUP3 DUP3 LT ISZERO PUSH2 0x3F5 JUMPI DUP4 DUP3 SWAP1 PUSH0 MSTORE PUSH1 0x20 PUSH0 KECCAK256 SWAP1 PUSH1 0x3 MUL ADD PUSH1 0x40 MLOAD DUP1 PUSH1 0x60 ADD PUSH1 0x40 MSTORE SWAP1 DUP2 PUSH0 DUP3 ADD PUSH0 SWAP1 SLOAD SWAP1 PUSH2 0x100 EXP SWAP1 DIV PUSH20 0xFFFFFFFFFFFFFFFFFFFFFFFFFFFFFFFFFFFFFFFF AND PUSH20 0xFFFFFFFFFFFFFFFFFFFFFFFFFFFFFFFFFFFFFFFF AND PUSH20 0xFFFFFFFFFFFFFFFFFFFFFFFFFFFFFFFFFFFFFFFF AND DUP2 MSTORE PUSH1 0x20 ADD PUSH1 0x1 DUP3 ADD SLOAD DUP2 MSTORE PUSH1 0x20 ADD PUSH1 0x2 DUP3 ADD SLOAD DUP2 MSTORE POP POP DUP2 MSTORE PUSH1 0x20 ADD SWAP1 PUSH1 0x1 ADD SWAP1 PUSH2 0x35D JUMP JUMPDEST POP POP POP POP SWAP1 POP SWAP1 JUMP JUMPDEST PUSH0 PUSH0 PUSH0 SWAP1 SLOAD SWAP1 PUSH2 0x100 EXP SWAP1 DIV PUSH1 0xFF AND PUSH1 0xFF AND EQ PUSH2 0x450 JUMPI PUSH1 0x40 MLOAD PUSH32 0x8C379A000000000000000000000000000000000000000000000000000000000 DUP2 MSTORE PUSH1 0x4 ADD PUSH2 0x447 SWAP1 PUSH2 0x1254 JUMP JUMPDEST PUSH1 0x40 MLOAD DUP1 SWAP2 SUB SWAP1 REVERT JUMPDEST PUSH1 0x3 SLOAD TIMESTAMP GT ISZERO PUSH2 0x495 JUMPI PUSH1 0x40 MLOAD PUSH32 0x8C379A000000000000000000000000000000000000000000000000000000000 DUP2 MSTORE PUSH1 0x4 ADD PUSH2 0x48C SWAP1 PUSH2 0x12BC JUMP JUMPDEST PUSH1 0x40 MLOAD DUP1 SWAP2 SUB SWAP1 REVERT JUMPDEST PUSH0 PUSH1 0x8 DUP1 SLOAD SWAP1 POP SWAP1 POP PUSH0 PUSH0 PUSH0 PUSH0 CALLER SWAP1 POP PUSH0 SWAP4 POP JUMPDEST DUP5 DUP5 LT ISZERO PUSH2 0x53B JUMPI DUP1 PUSH20 0xFFFFFFFFFFFFFFFFFFFFFFFFFFFFFFFFFFFFFFFF AND PUSH1 0x8 DUP6 DUP2 SLOAD DUP2 LT PUSH2 0x4DC JUMPI PUSH2 0x4DB PUSH2 0x12DA JUMP JUMPDEST JUMPDEST SWAP1 PUSH0 MSTORE PUSH1 0x20 PUSH0 KECCAK256 SWAP1 PUSH1 0x3 MUL ADD PUSH0 ADD PUSH0 SWAP1 SLOAD SWAP1 PUSH2 0x100 EXP SWAP1 DIV PUSH20 0xFFFFFFFFFFFFFFFFFFFFFFFFFFFFFFFFFFFFFFFF AND PUSH20 0xFFFFFFFFFFFFFFFFFFFFFFFFFFFFFFFFFFFFFFFF AND SUB PUSH2 0x52E JUMPI PUSH1 0x1 SWAP2 POP PUSH2 0x53B JUMP JUMPDEST DUP4 DUP1 PUSH1 0x1 ADD SWAP5 POP POP PUSH2 0x4A9 JUMP JUMPDEST PUSH1 0x1 DUP3 PUSH1 0xFF AND EQ PUSH2 0x581 JUMPI PUSH1 0x40 MLOAD PUSH32 0x8C379A000000000000000000000000000000000000000000000000000000000 DUP2 MSTORE PUSH1 0x4 ADD PUSH2 0x578 SWAP1 PUSH2 0x1351 JUMP JUMPDEST PUSH1 0x40 MLOAD DUP1 SWAP2 SUB SWAP1 REVERT JUMPDEST PUSH1 0x8 DUP5 DUP2 SLOAD DUP2 LT PUSH2 0x595 JUMPI PUSH2 0x594 PUSH2 0x12DA JUMP JUMPDEST JUMPDEST SWAP1 PUSH0 MSTORE PUSH1 0x20 PUSH0 KECCAK256 SWAP1 PUSH1 0x3 MUL ADD PUSH1 0x1 ADD SLOAD PUSH1 0xA PUSH0 DUP4 PUSH20 0xFFFFFFFFFFFFFFFFFFFFFFFFFFFFFFFFFFFFFFFF AND PUSH20 0xFFFFFFFFFFFFFFFFFFFFFFFFFFFFFFFFFFFFFFFF AND DUP2 MSTORE PUSH1 0x20 ADD SWAP1 DUP2 MSTORE PUSH1 0x20 ADD PUSH0 KECCAK256 SLOAD PUSH2 0x5ED SWAP2 SWAP1 PUSH2 0x139C JUMP JUMPDEST SWAP3 POP PUSH0 DUP4 GT PUSH2 0x631 JUMPI PUSH1 0x40 MLOAD PUSH32 0x8C379A000000000000000000000000000000000000000000000000000000000 DUP2 MSTORE PUSH1 0x4 ADD PUSH2 0x628 SWAP1 PUSH2 0x1419 JUMP JUMPDEST PUSH1 0x40 MLOAD DUP1 SWAP2 SUB SWAP1 REVERT JUMPDEST DUP3 PUSH1 0xA PUSH0 DUP4 PUSH20 0xFFFFFFFFFFFFFFFFFFFFFFFFFFFFFFFFFFFFFFFF AND PUSH20 0xFFFFFFFFFFFFFFFFFFFFFFFFFFFFFFFFFFFFFFFF AND DUP2 MSTORE PUSH1 0x20 ADD SWAP1 DUP2 MSTORE PUSH1 0x20 ADD PUSH0 KECCAK256 SLOAD PUSH2 0x67A SWAP2 SWAP1 PUSH2 0x139C JUMP JUMPDEST PUSH1 0xA PUSH0 DUP4 PUSH20 0xFFFFFFFFFFFFFFFFFFFFFFFFFFFFFFFFFFFFFFFF AND PUSH20 0xFFFFFFFFFFFFFFFFFFFFFFFFFFFFFFFFFFFFFFFF AND DUP2 MSTORE PUSH1 0x20 ADD SWAP1 DUP2 MSTORE PUSH1 0x20 ADD PUSH0 KECCAK256 DUP2 SWAP1 SSTORE POP DUP1 PUSH20 0xFFFFFFFFFFFFFFFFFFFFFFFFFFFFFFFFFFFFFFFF AND PUSH2 0x8FC DUP5 SWAP1 DUP2 ISZERO MUL SWAP1 PUSH1 0x40 MLOAD PUSH0 PUSH1 0x40 MLOAD DUP1 DUP4 SUB DUP2 DUP6 DUP9 DUP9 CALL SWAP4 POP POP POP POP ISZERO DUP1 ISZERO PUSH2 0x6FE JUMPI RETURNDATASIZE PUSH0 PUSH0 RETURNDATACOPY RETURNDATASIZE PUSH0 REVERT JUMPDEST POP POP POP POP POP POP JUMP JUMPDEST PUSH1 0x3 SLOAD DUP2 JUMP JUMPDEST PUSH1 0x4 SLOAD DUP2 JUMP JUMPDEST PUSH0 PUSH0 PUSH0 SWAP1 SLOAD SWAP1 PUSH2 0x100 EXP SWAP1 DIV PUSH1 0xFF AND PUSH1 0xFF AND EQ PUSH2 0x764 JUMPI PUSH1 0x40 MLOAD PUSH32 0x8C379A000000000000000000000000000000000000000000000000000000000 DUP2 MSTORE PUSH1 0x4 ADD PUSH2 0x75B SWAP1 PUSH2 0x1254 JUMP JUMPDEST PUSH1 0x40 MLOAD DUP1 SWAP2 SUB SWAP1 REVERT JUMPDEST PUSH1 0x3 SLOAD TIMESTAMP GT ISZERO PUSH2 0x7A9 JUMPI PUSH1 0x40 MLOAD PUSH32 0x8C379A000000000000000000000000000000000000000000000000000000000 DUP2 MSTORE PUSH1 0x4 ADD PUSH2 0x7A0 SWAP1 PUSH2 0x12BC JUMP JUMPDEST PUSH1 0x40 MLOAD DUP1 SWAP2 SUB SWAP1 REVERT JUMPDEST PUSH0 CALLVALUE SWAP1 POP PUSH0 PUSH1 0x64 PUSH1 0x2 SLOAD PUSH1 0x5 SLOAD PUSH2 0x7C0 SWAP2 SWAP1 PUSH2 0x1437 JUMP JUMPDEST PUSH2 0x7CA SWAP2 SWAP1 PUSH2 0x14A5 JUMP JUMPDEST PUSH1 0x5 SLOAD PUSH2 0x7D7 SWAP2 SWAP1 PUSH2 0x14D5 JUMP JUMPDEST SWAP1 POP DUP1 DUP3 GT ISZERO PUSH2 0xB57 JUMPI PUSH0 CALLER SWAP1 POP DUP1 PUSH1 0x6 PUSH0 PUSH2 0x100 EXP DUP2 SLOAD DUP2 PUSH20 0xFFFFFFFFFFFFFFFFFFFFFFFFFFFFFFFFFFFFFFFF MUL NOT AND SWAP1 DUP4 PUSH20 0xFFFFFFFFFFFFFFFFFFFFFFFFFFFFFFFFFFFFFFFF AND MUL OR SWAP1 SSTORE POP DUP3 PUSH1 0x5 DUP2 SWAP1 SSTORE POP PUSH0 PUSH1 0x8 DUP1 SLOAD SWAP1 POP SWAP1 POP PUSH0 PUSH0 PUSH0 SWAP1 POP JUMPDEST DUP3 DUP2 LT ISZERO PUSH2 0x91D JUMPI PUSH1 0x8 DUP2 DUP2 SLOAD DUP2 LT PUSH2 0x857 JUMPI PUSH2 0x856 PUSH2 0x12DA JUMP JUMPDEST JUMPDEST SWAP1 PUSH0 MSTORE PUSH1 0x20 PUSH0 KECCAK256 SWAP1 PUSH1 0x3 MUL ADD PUSH0 ADD PUSH0 SWAP1 SLOAD SWAP1 PUSH2 0x100 EXP SWAP1 DIV PUSH20 0xFFFFFFFFFFFFFFFFFFFFFFFFFFFFFFFFFFFFFFFF AND PUSH20 0xFFFFFFFFFFFFFFFFFFFFFFFFFFFFFFFFFFFFFFFF AND DUP5 PUSH20 0xFFFFFFFFFFFFFFFFFFFFFFFFFFFFFFFFFFFFFFFF AND SUB PUSH2 0x910 JUMPI DUP6 PUSH1 0x8 DUP3 DUP2 SLOAD DUP2 LT PUSH2 0x8CC JUMPI PUSH2 0x8CB PUSH2 0x12DA JUMP JUMPDEST JUMPDEST SWAP1 PUSH0 MSTORE PUSH1 0x20 PUSH0 KECCAK256 SWAP1 PUSH1 0x3 MUL ADD PUSH1 0x1 ADD DUP2 SWAP1 SSTORE POP TIMESTAMP PUSH1 0x8 DUP3 DUP2 SLOAD DUP2 LT PUSH2 0x8F4 JUMPI PUSH2 0x8F3 PUSH2 0x12DA JUMP JUMPDEST JUMPDEST SWAP1 PUSH0 MSTORE PUSH1 0x20 PUSH0 KECCAK256 SWAP1 PUSH1 0x3 MUL ADD PUSH1 0x2 ADD DUP2 SWAP1 SSTORE POP PUSH1 0x1 SWAP2 POP PUSH2 0x91D JUMP JUMPDEST DUP1 DUP1 PUSH1 0x1 ADD SWAP2 POP POP PUSH2 0x83B JUMP JUMPDEST POP PUSH0 DUP2 PUSH1 0xFF AND SUB PUSH2 0x9DC JUMPI PUSH1 0x8 PUSH1 0x40 MLOAD DUP1 PUSH1 0x60 ADD PUSH1 0x40 MSTORE DUP1 DUP6 PUSH20 0xFFFFFFFFFFFFFFFFFFFFFFFFFFFFFFFFFFFFFFFF AND DUP2 MSTORE PUSH1 0x20 ADD DUP8 DUP2 MSTORE PUSH1 0x20 ADD TIMESTAMP DUP2 MSTORE POP SWAP1 DUP1 PUSH1 0x1 DUP2 SLOAD ADD DUP1 DUP3 SSTORE DUP1 SWAP2 POP POP PUSH1 0x1 SWAP1 SUB SWAP1 PUSH0 MSTORE PUSH1 0x20 PUSH0 KECCAK256 SWAP1 PUSH1 0x3 MUL ADD PUSH0 SWAP1 SWAP2 SWAP1 SWAP2 SWAP1 SWAP2 POP PUSH0 DUP3 ADD MLOAD DUP2 PUSH0 ADD PUSH0 PUSH2 0x100 EXP DUP2 SLOAD DUP2 PUSH20 0xFFFFFFFFFFFFFFFFFFFFFFFFFFFFFFFFFFFFFFFF MUL NOT AND SWAP1 DUP4 PUSH20 0xFFFFFFFFFFFFFFFFFFFFFFFFFFFFFFFFFFFFFFFF AND MUL OR SWAP1 SSTORE POP PUSH1 0x20 DUP3 ADD MLOAD DUP2 PUSH1 0x1 ADD SSTORE PUSH1 0x40 DUP3 ADD MLOAD DUP2 PUSH1 0x2 ADD SSTORE POP POP JUMPDEST PUSH0 PUSH1 0xA PUSH0 DUP6 PUSH20 0xFFFFFFFFFFFFFFFFFFFFFFFFFFFFFFFFFFFFFFFF AND PUSH20 0xFFFFFFFFFFFFFFFFFFFFFFFFFFFFFFFFFFFFFFFF AND DUP2 MSTORE PUSH1 0x20 ADD SWAP1 DUP2 MSTORE PUSH1 0x20 ADD PUSH0 KECCAK256 SLOAD SUB PUSH2 0xA81 JUMPI PUSH1 0x9 DUP4 SWAP1 DUP1 PUSH1 0x1 DUP2 SLOAD ADD DUP1 DUP3 SSTORE DUP1 SWAP2 POP POP PUSH1 0x1 SWAP1 SUB SWAP1 PUSH0 MSTORE PUSH1 0x20 PUSH0 KECCAK256 ADD PUSH0 SWAP1 SWAP2 SWAP1 SWAP2 SWAP1 SWAP2 PUSH2 0x100 EXP DUP2 SLOAD DUP2 PUSH20 0xFFFFFFFFFFFFFFFFFFFFFFFFFFFFFFFFFFFFFFFF MUL NOT AND SWAP1 DUP4 PUSH20 0xFFFFFFFFFFFFFFFFFFFFFFFFFFFFFFFFFFFFFFFF AND MUL OR SWAP1 SSTORE POP JUMPDEST DUP5 PUSH1 0xA PUSH0 DUP6 PUSH20 0xFFFFFFFFFFFFFFFFFFFFFFFFFFFFFFFFFFFFFFFF AND PUSH20 0xFFFFFFFFFFFFFFFFFFFFFFFFFFFFFFFFFFFFFFFF AND DUP2 MSTORE PUSH1 0x20 ADD SWAP1 DUP2 MSTORE PUSH1 0x20 ADD PUSH0 KECCAK256 PUSH0 DUP3 DUP3 SLOAD PUSH2 0xACD SWAP2 SWAP1 PUSH2 0x14D5 JUMP JUMPDEST SWAP3 POP POP DUP2 SWAP1 SSTORE POP DUP3 PUSH20 0xFFFFFFFFFFFFFFFFFFFFFFFFFFFFFFFFFFFFFFFF AND PUSH32 0x551DE133C3C54F44EEB62D367128007225756725602FC40F3F2FB567E7FDF314 DUP7 TIMESTAMP PUSH1 0x40 MLOAD PUSH2 0xB1C SWAP3 SWAP2 SWAP1 PUSH2 0x1508 JUMP JUMPDEST PUSH1 0x40 MLOAD DUP1 SWAP2 SUB SWAP1 LOG2 PUSH1 0x4 SLOAD PUSH1 0x3 SLOAD PUSH2 0xB34 SWAP2 SWAP1 PUSH2 0x139C JUMP JUMPDEST TIMESTAMP LT PUSH2 0xB4F JUMPI PUSH1 0x4 SLOAD TIMESTAMP PUSH2 0xB48 SWAP2 SWAP1 PUSH2 0x14D5 JUMP JUMPDEST PUSH1 0x3 DUP2 SWAP1 SSTORE POP JUMPDEST POP POP POP PUSH2 0xB92 JUMP JUMPDEST PUSH1 0x40 MLOAD PUSH32 0x8C379A000000000000000000000000000000000000000000000000000000000 DUP2 MSTORE PUSH1 0x4 ADD PUSH2 0xB89 SWAP1 PUSH2 0x1579 JUMP JUMPDEST PUSH1 0x40 MLOAD DUP1 SWAP2 SUB SWAP1 REVERT JUMPDEST POP POP JUMP JUMPDEST PUSH1 0x7 PUSH0 SWAP1 SLOAD SWAP1 PUSH2 0x100 EXP SWAP1 DIV PUSH20 0xFFFFFFFFFFFFFFFFFFFFFFFFFFFFFFFFFFFFFFFF AND PUSH20 0xFFFFFFFFFFFFFFFFFFFFFFFFFFFFFFFFFFFFFFFF AND CALLER PUSH20 0xFFFFFFFFFFFFFFFFFFFFFFFFFFFFFFFFFFFFFFFF AND EQ PUSH2 0xC25 JUMPI PUSH1 0x40 MLOAD PUSH32 0x8C379A000000000000000000000000000000000000000000000000000000000 DUP2 MSTORE PUSH1 0x4 ADD PUSH2 0xC1C SWAP1 PUSH2 0x11EC JUMP JUMPDEST PUSH1 0x40 MLOAD DUP1 SWAP2 SUB SWAP1 REVERT JUMPDEST PUSH1 0x1 PUSH0 PUSH0 SWAP1 SLOAD SWAP1 PUSH2 0x100 EXP SWAP1 DIV PUSH1 0xFF AND PUSH1 0xFF AND EQ PUSH2 0xC78 JUMPI PUSH1 0x40 MLOAD PUSH32 0x8C379A000000000000000000000000000000000000000000000000000000000 DUP2 MSTORE PUSH1 0x4 ADD PUSH2 0xC6F SWAP1 PUSH2 0x15E1 JUMP JUMPDEST PUSH1 0x40 MLOAD DUP1 SWAP2 SUB SWAP1 REVERT JUMPDEST PUSH0 PUSH0 PUSH1 0x5 SLOAD SWAP1 POP PUSH0 PUSH1 0x9 DUP1 SLOAD SWAP1 POP SWAP1 POP PUSH0 PUSH0 SWAP1 POP JUMPDEST DUP2 DUP2 LT ISZERO PUSH2 0xF35 JUMPI DUP3 PUSH1 0xA PUSH0 PUSH1 0x9 DUP5 DUP2 SLOAD DUP2 LT PUSH2 0xCAD JUMPI PUSH2 0xCAC PUSH2 0x12DA JUMP JUMPDEST JUMPDEST SWAP1 PUSH0 MSTORE PUSH1 0x20 PUSH0 KECCAK256 ADD PUSH0 SWAP1 SLOAD SWAP1 PUSH2 0x100 EXP SWAP1 DIV PUSH20 0xFFFFFFFFFFFFFFFFFFFFFFFFFFFFFFFFFFFFFFFF AND PUSH20 0xFFFFFFFFFFFFFFFFFFFFFFFFFFFFFFFFFFFFFFFF AND PUSH20 0xFFFFFFFFFFFFFFFFFFFFFFFFFFFFFFFFFFFFFFFF AND DUP2 MSTORE PUSH1 0x20 ADD SWAP1 DUP2 MSTORE PUSH1 0x20 ADD PUSH0 KECCAK256 SLOAD LT ISZERO PUSH2 0xF28 JUMPI PUSH1 0x64 PUSH1 0x2 PUSH1 0xA PUSH0 PUSH1 0x9 DUP6 DUP2 SLOAD DUP2 LT PUSH2 0xD30 JUMPI PUSH2 0xD2F PUSH2 0x12DA JUMP JUMPDEST JUMPDEST SWAP1 PUSH0 MSTORE PUSH1 0x20 PUSH0 KECCAK256 ADD PUSH0 SWAP1 SLOAD SWAP1 PUSH2 0x100 EXP SWAP1 DIV PUSH20 0xFFFFFFFFFFFFFFFFFFFFFFFFFFFFFFFFFFFFFFFF AND PUSH20 0xFFFFFFFFFFFFFFFFFFFFFFFFFFFFFFFFFFFFFFFF AND PUSH20 0xFFFFFFFFFFFFFFFFFFFFFFFFFFFFFFFFFFFFFFFF AND DUP2 MSTORE PUSH1 0x20 ADD SWAP1 DUP2 MSTORE PUSH1 0x20 ADD PUSH0 KECCAK256 SLOAD PUSH2 0xD9C SWAP2 SWAP1 PUSH2 0x1437 JUMP JUMPDEST PUSH2 0xDA6 SWAP2 SWAP1 PUSH2 0x14A5 JUMP JUMPDEST PUSH1 0xA PUSH0 PUSH1 0x9 DUP5 DUP2 SLOAD DUP2 LT PUSH2 0xDBD JUMPI PUSH2 0xDBC PUSH2 0x12DA JUMP JUMPDEST JUMPDEST SWAP1 PUSH0 MSTORE PUSH1 0x20 PUSH0 KECCAK256 ADD PUSH0 SWAP1 SLOAD SWAP1 PUSH2 0x100 EXP SWAP1 DIV PUSH20 0xFFFFFFFFFFFFFFFFFFFFFFFFFFFFFFFFFFFFFFFF AND PUSH20 0xFFFFFFFFFFFFFFFFFFFFFFFFFFFFFFFFFFFFFFFF AND PUSH20 0xFFFFFFFFFFFFFFFFFFFFFFFFFFFFFFFFFFFFFFFF AND DUP2 MSTORE PUSH1 0x20 ADD SWAP1 DUP2 MSTORE PUSH1 0x20 ADD PUSH0 KECCAK256 SLOAD PUSH2 0xE29 SWAP2 SWAP1 PUSH2 0x139C JUMP JUMPDEST SWAP4 POP PUSH0 PUSH1 0xA PUSH0 PUSH1 0x9 DUP5 DUP2 SLOAD DUP2 LT PUSH2 0xE43 JUMPI PUSH2 0xE42 PUSH2 0x12DA JUMP JUMPDEST JUMPDEST SWAP1 PUSH0 MSTORE PUSH1 0x20 PUSH0 KECCAK256 ADD PUSH0 SWAP1 SLOAD SWAP1 PUSH2 0x100 EXP SWAP1 DIV PUSH20 0xFFFFFFFFFFFFFFFFFFFFFFFFFFFFFFFFFFFFFFFF AND PUSH20 0xFFFFFFFFFFFFFFFFFFFFFFFFFFFFFFFFFFFFFFFF AND PUSH20 0xFFFFFFFFFFFFFFFFFFFFFFFFFFFFFFFFFFFFFFFF AND DUP2 MSTORE PUSH1 0x20 ADD SWAP1 DUP2 MSTORE PUSH1 0x20 ADD PUSH0 KECCAK256 DUP2 SWAP1 SSTORE POP PUSH1 0x9 DUP2 DUP2 SLOAD DUP2 LT PUSH2 0xEBC JUMPI PUSH2 0xEBB PUSH2 0x12DA JUMP JUMPDEST JUMPDEST SWAP1 PUSH0 MSTORE PUSH1 0x20 PUSH0 KECCAK256 ADD PUSH0 SWAP1 SLOAD SWAP1 PUSH2 0x100 EXP SWAP1 DIV PUSH20 0xFFFFFFFFFFFFFFFFFFFFFFFFFFFFFFFFFFFFFFFF AND PUSH20 0xFFFFFFFFFFFFFFFFFFFFFFFFFFFFFFFFFFFFFFFF AND PUSH2 0x8FC DUP6 SWAP1 DUP2 ISZERO MUL SWAP1 PUSH1 0x40 MLOAD PUSH0 PUSH1 0x40 MLOAD DUP1 DUP4 SUB DUP2 DUP6 DUP9 DUP9 CALL SWAP4 POP POP POP POP ISZERO DUP1 ISZERO PUSH2 0xF26 JUMPI RETURNDATASIZE PUSH0 PUSH0 RETURNDATACOPY RETURNDATASIZE PUSH0 REVERT JUMPDEST POP JUMPDEST DUP1 DUP1 PUSH1 0x1 ADD SWAP2 POP POP PUSH2 0xC8D JUMP JUMPDEST POP PUSH1 0x7 PUSH0 SWAP1 SLOAD SWAP1 PUSH2 0x100 EXP SWAP1 DIV PUSH20 0xFFFFFFFFFFFFFFFFFFFFFFFFFFFFFFFFFFFFFFFF AND PUSH20 0xFFFFFFFFFFFFFFFFFFFFFFFFFFFFFFFFFFFFFFFF AND PUSH2 0x8FC SELFBALANCE SWAP1 DUP2 ISZERO MUL SWAP1 PUSH1 0x40 MLOAD PUSH0 PUSH1 0x40 MLOAD DUP1 DUP4 SUB DUP2 DUP6 DUP9 DUP9 CALL SWAP4 POP POP POP POP ISZERO DUP1 ISZERO PUSH2 0xF9A JUMPI RETURNDATASIZE PUSH0 PUSH0 RETURNDATACOPY RETURNDATASIZE PUSH0 REVERT JUMPDEST POP POP POP POP JUMP JUMPDEST PUSH0 PUSH0 PUSH1 0x6 PUSH0 SWAP1 SLOAD SWAP1 PUSH2 0x100 EXP SWAP1 DIV PUSH20 0xFFFFFFFFFFFFFFFFFFFFFFFFFFFFFFFFFFFFFFFF AND PUSH1 0x5 SLOAD SWAP2 POP SWAP2 POP SWAP1 SWAP2 JUMP JUMPDEST PUSH1 0x2 SLOAD DUP2 JUMP JUMPDEST PUSH0 DUP2 SWAP1 POP SWAP2 SWAP1 POP JUMP JUMPDEST PUSH2 0xFE7 DUP2 PUSH2 0xFD5 JUMP JUMPDEST DUP3 MSTORE POP POP JUMP JUMPDEST PUSH0 PUSH1 0x20 DUP3 ADD SWAP1 POP PUSH2 0x1000 PUSH0 DUP4 ADD DUP5 PUSH2 0xFDE JUMP JUMPDEST SWAP3 SWAP2 POP POP JUMP JUMPDEST PUSH0 DUP2 MLOAD SWAP1 POP SWAP2 SWAP1 POP JUMP JUMPDEST PUSH0 DUP3 DUP3 MSTORE PUSH1 0x20 DUP3 ADD SWAP1 POP SWAP3 SWAP2 POP POP JUMP JUMPDEST PUSH0 DUP2 SWAP1 POP PUSH1 0x20 DUP3 ADD SWAP1 POP SWAP2 SWAP1 POP JUMP JUMPDEST PUSH0 PUSH20 0xFFFFFFFFFFFFFFFFFFFFFFFFFFFFFFFFFFFFFFFF DUP3 AND SWAP1 POP SWAP2 SWAP1 POP JUMP JUMPDEST PUSH0 PUSH2 0x1058 DUP3 PUSH2 0x102F JUMP JUMPDEST SWAP1 POP SWAP2 SWAP1 POP JUMP JUMPDEST PUSH2 0x1068 DUP2 PUSH2 0x104E JUMP JUMPDEST DUP3 MSTORE POP POP JUMP JUMPDEST PUSH2 0x1077 DUP2 PUSH2 0xFD5 JUMP JUMPDEST DUP3 MSTORE POP POP JUMP JUMPDEST PUSH1 0x60 DUP3 ADD PUSH0 DUP3 ADD MLOAD PUSH2 0x1091 PUSH0 DUP6 ADD DUP3 PUSH2 0x105F JUMP JUMPDEST POP PUSH1 0x20 DUP3 ADD MLOAD PUSH2 0x10A4 PUSH1 0x20 DUP6 ADD DUP3 PUSH2 0x106E JUMP JUMPDEST POP PUSH1 0x40 DUP3 ADD MLOAD PUSH2 0x10B7 PUSH1 0x40 DUP6 ADD DUP3 PUSH2 0x106E JUMP JUMPDEST POP POP POP POP JUMP JUMPDEST PUSH0 PUSH2 0x10C8 DUP4 DUP4 PUSH2 0x107D JUMP JUMPDEST PUSH1 0x60 DUP4 ADD SWAP1 POP SWAP3 SWAP2 POP POP JUMP JUMPDEST PUSH0 PUSH1 0x20 DUP3 ADD SWAP1 POP SWAP2 SWAP1 POP JUMP JUMPDEST PUSH0 PUSH2 0x10EA DUP3 PUSH2 0x1006 JUMP JUMPDEST PUSH2 0x10F4 DUP2 DUP6 PUSH2 0x1010 JUMP JUMPDEST SWAP4 POP PUSH2 0x10FF DUP4 PUSH2 0x1020 JUMP JUMPDEST DUP1 PUSH0 JUMPDEST DUP4 DUP2 LT ISZERO PUSH2 0x112F JUMPI DUP2 MLOAD PUSH2 0x1116 DUP9 DUP3 PUSH2 0x10BD JUMP JUMPDEST SWAP8 POP PUSH2 0x1121 DUP4 PUSH2 0x10D4 JUMP JUMPDEST SWAP3 POP POP PUSH1 0x1 DUP2 ADD SWAP1 POP PUSH2 0x1102 JUMP JUMPDEST POP DUP6 SWAP4 POP POP POP POP SWAP3 SWAP2 POP POP JUMP JUMPDEST PUSH0 PUSH1 0x20 DUP3 ADD SWAP1 POP DUP2 DUP2 SUB PUSH0 DUP4 ADD MSTORE PUSH2 0x1154 DUP2 DUP5 PUSH2 0x10E0 JUMP JUMPDEST SWAP1 POP SWAP3 SWAP2 POP POP JUMP JUMPDEST PUSH2 0x1165 DUP2 PUSH2 0x104E JUMP JUMPDEST DUP3 MSTORE POP POP JUMP JUMPDEST PUSH0 PUSH1 0x40 DUP3 ADD SWAP1 POP PUSH2 0x117E PUSH0 DUP4 ADD DUP6 PUSH2 0x115C JUMP JUMPDEST PUSH2 0x118B PUSH1 0x20 DUP4 ADD DUP5 PUSH2 0xFDE JUMP JUMPDEST SWAP4 SWAP3 POP POP POP JUMP JUMPDEST PUSH0 DUP3 DUP3 MSTORE PUSH1 0x20 DUP3 ADD SWAP1 POP SWAP3 SWAP2 POP POP JUMP JUMPDEST PUSH32 0x4F6E6C79204F776E657220656E61626C65640000000000000000000000000000 PUSH0 DUP3 ADD MSTORE POP JUMP JUMPDEST PUSH0 PUSH2 0x11D6 PUSH1 0x12 DUP4 PUSH2 0x1192 JUMP JUMPDEST SWAP2 POP PUSH2 0x11E1 DUP3 PUSH2 0x11A2 JUMP JUMPDEST PUSH1 0x20 DUP3 ADD SWAP1 POP SWAP2 SWAP1 POP JUMP JUMPDEST PUSH0 PUSH1 0x20 DUP3 ADD SWAP1 POP DUP2 DUP2 SUB PUSH0 DUP4 ADD MSTORE PUSH2 0x1203 DUP2 PUSH2 0x11CA JUMP JUMPDEST SWAP1 POP SWAP2 SWAP1 POP JUMP JUMPDEST PUSH32 0x5468652061756374696F6E206973206F76657200000000000000000000000000 PUSH0 DUP3 ADD MSTORE POP JUMP JUMPDEST PUSH0 PUSH2 0x123E PUSH1 0x13 DUP4 PUSH2 0x1192 JUMP JUMPDEST SWAP2 POP PUSH2 0x1249 DUP3 PUSH2 0x120A JUMP JUMPDEST PUSH1 0x20 DUP3 ADD SWAP1 POP SWAP2 SWAP1 POP JUMP JUMPDEST PUSH0 PUSH1 0x20 DUP3 ADD SWAP1 POP DUP2 DUP2 SUB PUSH0 DUP4 ADD MSTORE PUSH2 0x126B DUP2 PUSH2 0x1232 JUMP JUMPDEST SWAP1 POP SWAP2 SWAP1 POP JUMP JUMPDEST PUSH32 0x5468652061756374696F6E206861732065787069726564000000000000000000 PUSH0 DUP3 ADD MSTORE POP JUMP JUMPDEST PUSH0 PUSH2 0x12A6 PUSH1 0x17 DUP4 PUSH2 0x1192 JUMP JUMPDEST SWAP2 POP PUSH2 0x12B1 DUP3 PUSH2 0x1272 JUMP JUMPDEST PUSH1 0x20 DUP3 ADD SWAP1 POP SWAP2 SWAP1 POP JUMP JUMPDEST PUSH0 PUSH1 0x20 DUP3 ADD SWAP1 POP DUP2 DUP2 SUB PUSH0 DUP4 ADD MSTORE PUSH2 0x12D3 DUP2 PUSH2 0x129A JUMP JUMPDEST SWAP1 POP SWAP2 SWAP1 POP JUMP JUMPDEST PUSH32 0x4E487B7100000000000000000000000000000000000000000000000000000000 PUSH0 MSTORE PUSH1 0x32 PUSH1 0x4 MSTORE PUSH1 0x24 PUSH0 REVERT JUMPDEST PUSH32 0x4E6F2065732076616C69646F206F6666657274616E7465000000000000000000 PUSH0 DUP3 ADD MSTORE POP JUMP JUMPDEST PUSH0 PUSH2 0x133B PUSH1 0x17 DUP4 PUSH2 0x1192 JUMP JUMPDEST SWAP2 POP PUSH2 0x1346 DUP3 PUSH2 0x1307 JUMP JUMPDEST PUSH1 0x20 DUP3 ADD SWAP1 POP SWAP2 SWAP1 POP JUMP JUMPDEST PUSH0 PUSH1 0x20 DUP3 ADD SWAP1 POP DUP2 DUP2 SUB PUSH0 DUP4 ADD MSTORE PUSH2 0x1368 DUP2 PUSH2 0x132F JUMP JUMPDEST SWAP1 POP SWAP2 SWAP1 POP JUMP JUMPDEST PUSH32 0x4E487B7100000000000000000000000000000000000000000000000000000000 PUSH0 MSTORE PUSH1 0x11 PUSH1 0x4 MSTORE PUSH1 0x24 PUSH0 REVERT JUMPDEST PUSH0 PUSH2 0x13A6 DUP3 PUSH2 0xFD5 JUMP JUMPDEST SWAP2 POP PUSH2 0x13B1 DUP4 PUSH2 0xFD5 JUMP JUMPDEST SWAP3 POP DUP3 DUP3 SUB SWAP1 POP DUP2 DUP2 GT ISZERO PUSH2 0x13C9 JUMPI PUSH2 0x13C8 PUSH2 0x136F JUMP JUMPDEST JUMPDEST SWAP3 SWAP2 POP POP JUMP JUMPDEST PUSH32 0x4E6F206861792070617261207265746972617200000000000000000000000000 PUSH0 DUP3 ADD MSTORE POP JUMP JUMPDEST PUSH0 PUSH2 0x1403 PUSH1 0x13 DUP4 PUSH2 0x1192 JUMP JUMPDEST SWAP2 POP PUSH2 0x140E DUP3 PUSH2 0x13CF JUMP JUMPDEST PUSH1 0x20 DUP3 ADD SWAP1 POP SWAP2 SWAP1 POP JUMP JUMPDEST PUSH0 PUSH1 0x20 DUP3 ADD SWAP1 POP DUP2 DUP2 SUB PUSH0 DUP4 ADD MSTORE PUSH2 0x1430 DUP2 PUSH2 0x13F7 JUMP JUMPDEST SWAP1 POP SWAP2 SWAP1 POP JUMP JUMPDEST PUSH0 PUSH2 0x1441 DUP3 PUSH2 0xFD5 JUMP JUMPDEST SWAP2 POP PUSH2 0x144C DUP4 PUSH2 0xFD5 JUMP JUMPDEST SWAP3 POP DUP3 DUP3 MUL PUSH2 0x145A DUP2 PUSH2 0xFD5 JUMP JUMPDEST SWAP2 POP DUP3 DUP3 DIV DUP5 EQ DUP4 ISZERO OR PUSH2 0x1471 JUMPI PUSH2 0x1470 PUSH2 0x136F JUMP JUMPDEST JUMPDEST POP SWAP3 SWAP2 POP POP JUMP JUMPDEST PUSH32 0x4E487B7100000000000000000000000000000000000000000000000000000000 PUSH0 MSTORE PUSH1 0x12 PUSH1 0x4 MSTORE PUSH1 0x24 PUSH0 REVERT JUMPDEST PUSH0 PUSH2 0x14AF DUP3 PUSH2 0xFD5 JUMP JUMPDEST SWAP2 POP PUSH2 0x14BA DUP4 PUSH2 0xFD5 JUMP JUMPDEST SWAP3 POP DUP3 PUSH2 0x14CA JUMPI PUSH2 0x14C9 PUSH2 0x1478 JUMP JUMPDEST JUMPDEST DUP3 DUP3 DIV SWAP1 POP SWAP3 SWAP2 POP POP JUMP JUMPDEST PUSH0 PUSH2 0x14DF DUP3 PUSH2 0xFD5 JUMP JUMPDEST SWAP2 POP PUSH2 0x14EA DUP4 PUSH2 0xFD5 JUMP JUMPDEST SWAP3 POP DUP3 DUP3 ADD SWAP1 POP DUP1 DUP3 GT ISZERO PUSH2 0x1502 JUMPI PUSH2 0x1501 PUSH2 0x136F JUMP JUMPDEST JUMPDEST SWAP3 SWAP2 POP POP JUMP JUMPDEST PUSH0 PUSH1 0x40 DUP3 ADD SWAP1 POP PUSH2 0x151B PUSH0 DUP4 ADD DUP6 PUSH2 0xFDE JUMP JUMPDEST PUSH2 0x1528 PUSH1 0x20 DUP4 ADD DUP5 PUSH2 0xFDE JUMP JUMPDEST SWAP4 SWAP3 POP POP POP JUMP JUMPDEST PUSH32 0x6F66666572206973206C6F770000000000000000000000000000000000000000 PUSH0 DUP3 ADD MSTORE POP JUMP JUMPDEST PUSH0 PUSH2 0x1563 PUSH1 0xC DUP4 PUSH2 0x1192 JUMP JUMPDEST SWAP2 POP PUSH2 0x156E DUP3 PUSH2 0x152F JUMP JUMPDEST PUSH1 0x20 DUP3 ADD SWAP1 POP SWAP2 SWAP1 POP JUMP JUMPDEST PUSH0 PUSH1 0x20 DUP3 ADD SWAP1 POP DUP2 DUP2 SUB PUSH0 DUP4 ADD MSTORE PUSH2 0x1590 DUP2 PUSH2 0x1557 JUMP JUMPDEST SWAP1 POP SWAP2 SWAP1 POP JUMP JUMPDEST PUSH32 0x7468652061756374696F6E206973206E6F7420656E61626C6564000000000000 PUSH0 DUP3 ADD MSTORE POP JUMP JUMPDEST PUSH0 PUSH2 0x15CB PUSH1 0x1A DUP4 PUSH2 0x1192 JUMP JUMPDEST SWAP2 POP PUSH2 0x15D6 DUP3 PUSH2 0x1597 JUMP JUMPDEST PUSH1 0x20 DUP3 ADD SWAP1 POP SWAP2 SWAP1 POP JUMP JUMPDEST PUSH0 PUSH1 0x20 DUP3 ADD SWAP1 POP DUP2 DUP2 SUB PUSH0 DUP4 ADD MSTORE PUSH2 0x15F8 DUP2 PUSH2 0x15BF JUMP JUMPDEST SWAP1 POP SWAP2 SWAP1 POP JUMP INVALID LOG2 PUSH5 0x6970667358 0x22 SLT KECCAK256 0xE8 0xB2 CALLVALUE BYTE JUMPI OR 0xD DUP9 0xC1 0xC6 0xC4 0xB7 0xC3 PUSH18 0x340D2EEFFA5391A2E35137EC94FBFAFE0E67 PUSH5 0x736F6C6343 STOP ADDMOD 0x1E STOP CALLER "
				},
				"gasEstimates": {
					"creation": {
						"codeDepositCost": "1137000",
						"executionCost": "infinite",
						"totalCost": "infinite"
					},
					"external": {
						"bidDuracion()": "2425",
						"endSubasta()": "32407",
						"extenbidTime()": "2447",
						"getOffers()": "infinite",
						"getWin()": "4815",
						"intialValue()": "2426",
						"maxOfferta()": "2470",
						"returnOffers()": "infinite",
						"returnParcial()": "infinite",
						"saltoBid()": "2535",
						"setOffer()": "infinite"
					}
				},
				"methodIdentifiers": {
					"bidDuracion()": "5b8a4cd1",
					"endSubasta()": "2987479b",
					"extenbidTime()": "680aa85b",
					"getOffers()": "3ee992ee",
					"getWin()": "d6d36b92",
					"intialValue()": "02891347",
					"maxOfferta()": "3a2da003",
					"returnOffers()": "77c468c4",
					"returnParcial()": "5021c7c3",
					"saltoBid()": "efb0a849",
					"setOffer()": "689567d5"
				}
			},
			"storageLayout": {
				"storage": [
					{
						"astId": 3,
						"contract": "auction.sol:subasta",
						"label": "flagEndBid",
						"offset": 0,
						"slot": "0",
						"type": "t_uint8"
					},
					{
						"astId": 5,
						"contract": "auction.sol:subasta",
						"label": "intialValue",
						"offset": 0,
						"slot": "1",
						"type": "t_uint256"
					},
					{
						"astId": 7,
						"contract": "auction.sol:subasta",
						"label": "saltoBid",
						"offset": 0,
						"slot": "2",
						"type": "t_uint256"
					},
					{
						"astId": 9,
						"contract": "auction.sol:subasta",
						"label": "bidDuracion",
						"offset": 0,
						"slot": "3",
						"type": "t_uint256"
					},
					{
						"astId": 11,
						"contract": "auction.sol:subasta",
						"label": "extenbidTime",
						"offset": 0,
						"slot": "4",
						"type": "t_uint256"
					},
					{
						"astId": 13,
						"contract": "auction.sol:subasta",
						"label": "maxOfferta",
						"offset": 0,
						"slot": "5",
						"type": "t_uint256"
					},
					{
						"astId": 15,
						"contract": "auction.sol:subasta",
						"label": "winBidder",
						"offset": 0,
						"slot": "6",
						"type": "t_address"
					},
					{
						"astId": 17,
						"contract": "auction.sol:subasta",
						"label": "owner",
						"offset": 0,
						"slot": "7",
						"type": "t_address"
					},
					{
						"astId": 56,
						"contract": "auction.sol:subasta",
						"label": "offers",
						"offset": 0,
						"slot": "8",
						"type": "t_array(t_struct(offer)52_storage)dyn_storage"
					},
					{
						"astId": 59,
						"contract": "auction.sol:subasta",
						"label": "uniqueAddr",
						"offset": 0,
						"slot": "9",
						"type": "t_array(t_address)dyn_storage"
					},
					{
						"astId": 63,
						"contract": "auction.sol:subasta",
						"label": "balance",
						"offset": 0,
						"slot": "10",
						"type": "t_mapping(t_address,t_uint256)"
					}
				],
				"types": {
					"t_address": {
						"encoding": "inplace",
						"label": "address",
						"numberOfBytes": "20"
					},
					"t_array(t_address)dyn_storage": {
						"base": "t_address",
						"encoding": "dynamic_array",
						"label": "address[]",
						"numberOfBytes": "32"
					},
					"t_array(t_struct(offer)52_storage)dyn_storage": {
						"base": "t_struct(offer)52_storage",
						"encoding": "dynamic_array",
						"label": "struct subasta.offer[]",
						"numberOfBytes": "32"
					},
					"t_mapping(t_address,t_uint256)": {
						"encoding": "mapping",
						"key": "t_address",
						"label": "mapping(address => uint256)",
						"numberOfBytes": "32",
						"value": "t_uint256"
					},
					"t_struct(offer)52_storage": {
						"encoding": "inplace",
						"label": "struct subasta.offer",
						"members": [
							{
								"astId": 47,
								"contract": "auction.sol:subasta",
								"label": "bidder",
								"offset": 0,
								"slot": "0",
								"type": "t_address"
							},
							{
								"astId": 49,
								"contract": "auction.sol:subasta",
								"label": "amount",
								"offset": 0,
								"slot": "1",
								"type": "t_uint256"
							},
							{
								"astId": 51,
								"contract": "auction.sol:subasta",
								"label": "offerDate",
								"offset": 0,
								"slot": "2",
								"type": "t_uint256"
							}
						],
						"numberOfBytes": "96"
					},
					"t_uint256": {
						"encoding": "inplace",
						"label": "uint256",
						"numberOfBytes": "32"
					},
					"t_uint8": {
						"encoding": "inplace",
						"label": "uint8",
						"numberOfBytes": "1"
					}
				}
			},
			"userdoc": {
				"kind": "user",
				"methods": {},
				"version": 1
			}
		}
	}
}